{
  "contracts/Funding.sol": {
    "Funding": {
      "abi": [
        {
          "inputs": [],
          "stateMutability": "nonpayable",
          "type": "constructor"
        },
        {
          "anonymous": false,
          "inputs": [
            {
              "indexed": false,
              "internalType": "string",
              "name": "hash",
              "type": "string"
            },
            {
              "indexed": false,
              "internalType": "uint256",
              "name": "total",
              "type": "uint256"
            }
          ],
          "name": "ClaimMoney",
          "type": "event"
        },
        {
          "anonymous": false,
          "inputs": [
            {
              "indexed": false,
              "internalType": "string",
              "name": "hash",
              "type": "string"
            },
            {
              "indexed": false,
              "internalType": "uint256",
              "name": "total",
              "type": "uint256"
            }
          ],
          "name": "DistributeMoney",
          "type": "event"
        },
        {
          "anonymous": false,
          "inputs": [
            {
              "indexed": false,
              "internalType": "string",
              "name": "hash",
              "type": "string"
            },
            {
              "indexed": false,
              "internalType": "uint256",
              "name": "fund",
              "type": "uint256"
            },
            {
              "indexed": false,
              "internalType": "address",
              "name": "_from",
              "type": "address"
            }
          ],
          "name": "MoneyTransfered",
          "type": "event"
        },
        {
          "anonymous": false,
          "inputs": [
            {
              "indexed": false,
              "internalType": "string",
              "name": "hash",
              "type": "string"
            },
            {
              "indexed": false,
              "internalType": "uint256",
              "name": "totalFund",
              "type": "uint256"
            },
            {
              "indexed": false,
              "internalType": "address",
              "name": "owner",
              "type": "address"
            }
          ],
          "name": "ProjectRegistered",
          "type": "event"
        },
        {
          "anonymous": false,
          "inputs": [
            {
              "indexed": false,
              "internalType": "string",
              "name": "hash",
              "type": "string"
            },
            {
              "indexed": false,
              "internalType": "uint256",
              "name": "total",
              "type": "uint256"
            }
          ],
          "name": "RefundIssued",
          "type": "event"
        },
        {
          "inputs": [
            {
              "internalType": "string",
              "name": "category",
              "type": "string"
            }
          ],
          "name": "addCategory",
          "outputs": [],
          "stateMutability": "nonpayable",
          "type": "function"
        },
        {
          "inputs": [
            {
              "internalType": "string",
              "name": "hash",
              "type": "string"
            }
          ],
          "name": "claimMoney",
          "outputs": [],
          "stateMutability": "nonpayable",
          "type": "function"
        },
        {
          "inputs": [
            {
              "internalType": "string",
              "name": "hash",
              "type": "string"
            }
          ],
          "name": "distrubiteMoney",
          "outputs": [],
          "stateMutability": "payable",
          "type": "function"
        },
        {
          "inputs": [
            {
              "internalType": "string",
              "name": "hash",
              "type": "string"
            }
          ],
          "name": "donateToProject",
          "outputs": [
            {
              "internalType": "bool",
              "name": "",
              "type": "bool"
            }
          ],
          "stateMutability": "payable",
          "type": "function"
        },
        {
          "inputs": [],
          "name": "getCategories",
          "outputs": [
            {
              "internalType": "string[]",
              "name": "",
              "type": "string[]"
            }
          ],
          "stateMutability": "view",
          "type": "function"
        },
        {
          "inputs": [],
          "name": "getHash",
          "outputs": [
            {
              "internalType": "string",
              "name": "",
              "type": "string"
            }
          ],
          "stateMutability": "view",
          "type": "function"
        },
        {
          "inputs": [
            {
              "internalType": "string",
              "name": "hash",
              "type": "string"
            }
          ],
          "name": "getMaxMoneyPossibleToSend",
          "outputs": [
            {
              "internalType": "uint256",
              "name": "",
              "type": "uint256"
            }
          ],
          "stateMutability": "view",
          "type": "function"
        },
        {
          "inputs": [],
          "name": "getProjects",
          "outputs": [
            {
              "components": [
                {
                  "internalType": "string",
                  "name": "name",
                  "type": "string"
                },
                {
                  "internalType": "string[]",
                  "name": "categories",
                  "type": "string[]"
                },
                {
                  "internalType": "uint256",
                  "name": "totalFund",
                  "type": "uint256"
                },
                {
                  "internalType": "uint256",
                  "name": "currFund",
                  "type": "uint256"
                },
                {
                  "internalType": "bool",
                  "name": "finished",
                  "type": "bool"
                },
                {
                  "internalType": "address",
                  "name": "owner",
                  "type": "address"
                },
                {
                  "internalType": "uint256",
                  "name": "percentage",
                  "type": "uint256"
                },
                {
                  "internalType": "uint256",
                  "name": "moneyOwner",
                  "type": "uint256"
                },
                {
                  "components": [
                    {
                      "internalType": "address",
                      "name": "wallet",
                      "type": "address"
                    },
                    {
                      "internalType": "uint256",
                      "name": "amount",
                      "type": "uint256"
                    }
                  ],
                  "internalType": "struct Funding.Share[]",
                  "name": "shares",
                  "type": "tuple[]"
                },
                {
                  "internalType": "bool",
                  "name": "claimed",
                  "type": "bool"
                },
                {
                  "internalType": "string",
                  "name": "hash",
                  "type": "string"
                }
              ],
              "internalType": "struct Funding.Project[]",
              "name": "",
              "type": "tuple[]"
            }
          ],
          "stateMutability": "view",
          "type": "function"
        },
        {
          "inputs": [
            {
              "internalType": "string",
              "name": "hash",
              "type": "string"
            }
          ],
          "name": "refund",
          "outputs": [],
          "stateMutability": "nonpayable",
          "type": "function"
        },
        {
          "inputs": [
            {
              "internalType": "string",
              "name": "name",
              "type": "string"
            },
            {
              "internalType": "string[]",
              "name": "categories",
              "type": "string[]"
            },
            {
              "internalType": "uint256",
              "name": "totalFund",
              "type": "uint256"
            },
            {
              "internalType": "uint256",
              "name": "soldPercentage",
              "type": "uint256"
            }
          ],
          "name": "registerProject",
          "outputs": [],
          "stateMutability": "payable",
          "type": "function"
        }
      ],
      "evm": {
        "bytecode": {
          "linkReferences": {},
          "object": "60806040526232c55b6002553480156200001857600080fd5b50600080600181540180825580915050600190039060005260206000200160006040518060400160405280600281526020017f4149000000000000000000000000000000000000000000000000000000000000815250909190915090816200008191906200036b565b50600080600181540180825580915050600190039060005260206000200160006040518060400160405280600481526020017f446174610000000000000000000000000000000000000000000000000000000081525090919091509081620000ea91906200036b565b5062000452565b600081519050919050565b7f4e487b7100000000000000000000000000000000000000000000000000000000600052604160045260246000fd5b7f4e487b7100000000000000000000000000000000000000000000000000000000600052602260045260246000fd5b600060028204905060018216806200017357607f821691505b6020821081036200018957620001886200012b565b5b50919050565b60008190508160005260206000209050919050565b60006020601f8301049050919050565b600082821b905092915050565b600060088302620001f37fffffffffffffffffffffffffffffffffffffffffffffffffffffffffffffffff82620001b4565b620001ff8683620001b4565b95508019841693508086168417925050509392505050565b6000819050919050565b6000819050919050565b60006200024c62000246620002408462000217565b62000221565b62000217565b9050919050565b6000819050919050565b62000268836200022b565b62000280620002778262000253565b848454620001c1565b825550505050565b600090565b6200029762000288565b620002a48184846200025d565b505050565b5b81811015620002cc57620002c06000826200028d565b600181019050620002aa565b5050565b601f8211156200031b57620002e5816200018f565b620002f084620001a4565b8101602085101562000300578190505b620003186200030f85620001a4565b830182620002a9565b50505b505050565b600082821c905092915050565b6000620003406000198460080262000320565b1980831691505092915050565b60006200035b83836200032d565b9150826002028217905092915050565b6200037682620000f1565b67ffffffffffffffff811115620003925762000391620000fc565b5b6200039e82546200015a565b620003ab828285620002d0565b600060209050601f831160018114620003e35760008415620003ce578287015190505b620003da85826200034d565b8655506200044a565b601f198416620003f3866200018f565b60005b828110156200041d57848901518255600182019150602085019450602081019050620003f6565b868310156200043d578489015162000439601f8916826200032d565b8355505b6001600288020188555050505b505050505050565b61327d80620004626000396000f3fe6080604052600436106100915760003560e01c8063a19c856511610059578063a19c85651461016c578063d13319c414610188578063dcc60128146101b3578063f6b58310146101de578063fe5f2e881461020e57610091565b80632e0dcbf714610096578063354446a3146100bf57806338c79aa7146100db5780634db0412c146101045780637d2b90581461012f575b600080fd5b3480156100a257600080fd5b506100bd60048036038101906100b89190612012565b610237565b005b6100d960048036038101906100d49190612012565b61038c565b005b3480156100e757600080fd5b5061010260048036038101906100fd9190612012565b6105b7565b005b34801561011057600080fd5b506101196108c1565b604051610126919061219c565b60405180910390f35b34801561013b57600080fd5b5061015660048036038101906101519190612012565b61099a565b60405161016391906121d7565b60405180910390f35b61018660048036038101906101819190612304565b610a6e565b005b34801561019457600080fd5b5061019d610ce7565b6040516101aa91906123ed565b60405180910390f35b3480156101bf57600080fd5b506101c8610d25565b6040516101d591906127a4565b60405180910390f35b6101f860048036038101906101f39190612012565b6110f5565b60405161020591906127d5565b60405180910390f35b34801561021a57600080fd5b5061023560048036038101906102309190612012565b611506565b005b806103136000805480602002602001604051908101604052809291908181526020016000905b8282101561030957838290600052602060002001805461027c9061281f565b80601f01602080910402602001604051908101604052809291908181526020018280546102a89061281f565b80156102f55780601f106102ca576101008083540402835291602001916102f5565b820191906000526020600020905b8154815290600101906020018083116102d857829003601f168201915b50505050508152602001906001019061025d565b505050508261194d565b15610353576040517f08c379a000000000000000000000000000000000000000000000000000000000815260040161034a9061289c565b60405180910390fd5b6000829080600181540180825580915050600190039060005260206000200160009091909190915090816103879190612a68565b505050565b6000610397826119aa565b90507fffffffffffffffffffffffffffffffffffffffffffffffffffffffffffffffff81036103fb576040517f08c379a00000000000000000000000000000000000000000000000000000000081526004016103f290612b86565b60405180910390fd5b600081905060005b6001828154811061041757610416612ba6565b5b90600052602060002090600a020160070180549050811015610578576001828154811061044757610446612ba6565b5b90600052602060002090600a0201600701818154811061046a57610469612ba6565b5b906000526020600020906002020160000160009054906101000a900473ffffffffffffffffffffffffffffffffffffffff1673ffffffffffffffffffffffffffffffffffffffff166108fc600184815481106104c9576104c8612ba6565b5b90600052602060002090600a020160030154600185815481106104ef576104ee612ba6565b5b90600052602060002090600a0201600701848154811061051257610511612ba6565b5b9060005260206000209060020201600101543461052f9190612c04565b6105399190612c75565b9081150290604051600060405180830381858888f19350505050158015610564573d6000803e3d6000fd5b50828061057090612cb0565b935050610403565b507fec63a3d125b5bd99c45e370eae004c876c2b27aa83793caa1ba7018c04b5e86f83346040516105aa929190612cf8565b60405180910390a1505050565b60006105c2826119aa565b90507fffffffffffffffffffffffffffffffffffffffffffffffffffffffffffffffff8103610626576040517f08c379a000000000000000000000000000000000000000000000000000000000815260040161061d90612d74565b60405180910390fd5b60008190506001818154811061063f5761063e612ba6565b5b90600052602060002090600a020160080160009054906101000a900460ff161561069e576040517f08c379a000000000000000000000000000000000000000000000000000000000815260040161069590612de0565b60405180910390fd5b600181815481106106b2576106b1612ba6565b5b90600052602060002090600a020160040160009054906101000a900460ff16610710576040517f08c379a000000000000000000000000000000000000000000000000000000000815260040161070790612e4c565b60405180910390fd5b6001818154811061072457610723612ba6565b5b90600052602060002090600a020160040160019054906101000a900473ffffffffffffffffffffffffffffffffffffffff1673ffffffffffffffffffffffffffffffffffffffff166108fc6001838154811061078357610782612ba6565b5b90600052602060002090600a020160020154600184815481106107a9576107a8612ba6565b5b90600052602060002090600a0201600601546107c59190612e6c565b9081150290604051600060405180830381858888f193505050501580156107f0573d6000803e3d6000fd5b50600180828154811061080657610805612ba6565b5b90600052602060002090600a020160080160006101000a81548160ff0219169083151502179055507fe44cc0bf710f82664bf687ac4432c3e69b9ed2af5c90b53b1b985a965e45ae02836001838154811061086457610863612ba6565b5b90600052602060002090600a0201600201546001848154811061088a57610889612ba6565b5b90600052602060002090600a0201600601546108a69190612e6c565b6040516108b4929190612cf8565b60405180910390a1505050565b60606000805480602002602001604051908101604052809291908181526020016000905b828210156109915783829060005260206000200180546109049061281f565b80601f01602080910402602001604051908101604052809291908181526020018280546109309061281f565b801561097d5780601f106109525761010080835404028352916020019161097d565b820191906000526020600020905b81548152906001019060200180831161096057829003601f168201915b5050505050815260200190600101906108e5565b50505050905090565b6000806109a6836119aa565b90507fffffffffffffffffffffffffffffffffffffffffffffffffffffffffffffffff8103610a0a576040517f08c379a0000000000000000000000000000000000000000000000000000000008152600401610a0190612d74565b60405180910390fd5b600081905060018181548110610a2357610a22612ba6565b5b90600052602060002090600a02016003015460018281548110610a4957610a48612ba6565b5b90600052602060002090600a020160020154610a659190612ea0565b92505050919050565b8281610a7982611abb565b610ab8576040517f08c379a0000000000000000000000000000000000000000000000000000000008152600401610aaf90612f20565b60405180910390fd5b606481108015610ac9575060008114155b610b08576040517f08c379a0000000000000000000000000000000000000000000000000000000008152600401610aff90612f8c565b60405180910390fd5b600180816001815401808255809150500390600052602060002090505060006001808080549050610b399190612ea0565b81548110610b4a57610b49612ba6565b5b90600052602060002090600a0201905086816000019081610b6b9190612a68565b5060005b8651811015610bd65781600101878281518110610b8f57610b8e612ba6565b5b6020026020010151908060018154018082558091505060019003906000526020600020016000909190919091509081610bc89190612a68565b508080600101915050610b6f565b5084816002018190555060008160040160006101000a81548160ff021916908315150217905550338160040160016101000a81548173ffffffffffffffffffffffffffffffffffffffff021916908373ffffffffffffffffffffffffffffffffffffffff160217905550838160050181905550610c51610ce7565b816009019081610c619190612a68565b5034816006018190555060008160080160006101000a81548160ff02191690831515021790555060026000815480929190610c9b90612fac565b91905055507f9d68939c1ddfeffc79739bb966edbfd496e6081f2bbb1a94eb7c1a42fcbb1dcf816009018633604051610cd693929190613087565b60405180910390a150505050505050565b60606000600254604051602001610cfe91906121d7565b604051602081830303815290604052805190602001209050610d1f81611be7565b91505090565b60606001805480602002602001604051908101604052809291908181526020016000905b828210156110ec57838290600052602060002090600a020160405180610160016040529081600082018054610d7d9061281f565b80601f0160208091040260200160405190810160405280929190818152602001828054610da99061281f565b8015610df65780601f10610dcb57610100808354040283529160200191610df6565b820191906000526020600020905b815481529060010190602001808311610dd957829003601f168201915b5050505050815260200160018201805480602002602001604051908101604052809291908181526020016000905b82821015610ed0578382906000526020600020018054610e439061281f565b80601f0160208091040260200160405190810160405280929190818152602001828054610e6f9061281f565b8015610ebc5780601f10610e9157610100808354040283529160200191610ebc565b820191906000526020600020905b815481529060010190602001808311610e9f57829003601f168201915b505050505081526020019060010190610e24565b50505050815260200160028201548152602001600382015481526020016004820160009054906101000a900460ff161515151581526020016004820160019054906101000a900473ffffffffffffffffffffffffffffffffffffffff1673ffffffffffffffffffffffffffffffffffffffff1673ffffffffffffffffffffffffffffffffffffffff168152602001600582015481526020016006820154815260200160078201805480602002602001604051908101604052809291908181526020016000905b8282101561102857838290600052602060002090600202016040518060400160405290816000820160009054906101000a900473ffffffffffffffffffffffffffffffffffffffff1673ffffffffffffffffffffffffffffffffffffffff1673ffffffffffffffffffffffffffffffffffffffff16815260200160018201548152505081526020019060010190610f96565b5050505081526020016008820160009054906101000a900460ff1615151515815260200160098201805461105b9061281f565b80601f01602080910402602001604051908101604052809291908181526020018280546110879061281f565b80156110d45780601f106110a9576101008083540402835291602001916110d4565b820191906000526020600020905b8154815290600101906020018083116110b757829003601f168201915b50505050508152505081526020019060010190610d49565b50505050905090565b600080611101836119aa565b90507fffffffffffffffffffffffffffffffffffffffffffffffffffffffffffffffff8103611165576040517f08c379a000000000000000000000000000000000000000000000000000000000815260040161115c90612d74565b60405180910390fd5b6001818154811061117957611178612ba6565b5b90600052602060002090600a020160040160009054906101000a900460ff16156111d8576040517f08c379a00000000000000000000000000000000000000000000000000000000081526004016111cf90613111565b60405180910390fd5b600081905034600182815481106111f2576111f1612ba6565b5b90600052602060002090600a020160030160008282546112129190612e6c565b925050819055507ff52c0b1f9d621ad58c98df6134275afb3fa547a9b691554606043810ac9f684a84343360405161124c93929190613131565b60405180910390a16000805b6001838154811061126c5761126b612ba6565b5b90600052602060002090600a020160070180549050811015611398573373ffffffffffffffffffffffffffffffffffffffff16600184815481106112b3576112b2612ba6565b5b90600052602060002090600a020160070182815481106112d6576112d5612ba6565b5b906000526020600020906002020160000160009054906101000a900473ffffffffffffffffffffffffffffffffffffffff1673ffffffffffffffffffffffffffffffffffffffff160361138b57346001848154811061133857611337612ba6565b5b90600052602060002090600a0201600701828154811061135b5761135a612ba6565b5b9060005260206000209060020201600101600082825461137b9190612e6c565b9250508190555060019150611398565b8080600101915050611258565b508061146b57600182815481106113b2576113b1612ba6565b5b90600052602060002090600a020160070160405180604001604052803373ffffffffffffffffffffffffffffffffffffffff16815260200134815250908060018154018082558091505060019003906000526020600020906002020160009091909190915060008201518160000160006101000a81548173ffffffffffffffffffffffffffffffffffffffff021916908373ffffffffffffffffffffffffffffffffffffffff1602179055506020820151816001015550505b6001828154811061147f5761147e612ba6565b5b90600052602060002090600a020160020154600183815481106114a5576114a4612ba6565b5b90600052602060002090600a020160030154036114fa5760018083815481106114d1576114d0612ba6565b5b90600052602060002090600a020160040160006101000a81548160ff0219169083151502179055505b60009350505050919050565b6000611511826119aa565b90507fffffffffffffffffffffffffffffffffffffffffffffffffffffffffffffffff8103611575576040517f08c379a000000000000000000000000000000000000000000000000000000000815260040161156c90612b86565b60405180910390fd5b6001818154811061158957611588612ba6565b5b90600052602060002090600a020160040160019054906101000a900473ffffffffffffffffffffffffffffffffffffffff1673ffffffffffffffffffffffffffffffffffffffff163373ffffffffffffffffffffffffffffffffffffffff1614611628576040517f08c379a000000000000000000000000000000000000000000000000000000000815260040161161f906131bb565b60405180910390fd5b60001515600182815481106116405761163f612ba6565b5b90600052602060002090600a020160040160009054906101000a900460ff161515146116a1576040517f08c379a000000000000000000000000000000000000000000000000000000000815260040161169890613227565b60405180910390fd5b600081905060005b600182815481106116bd576116bc612ba6565b5b90600052602060002090600a0201600701805490508110156117dd57600182815481106116ed576116ec612ba6565b5b90600052602060002090600a020160070181815481106117105761170f612ba6565b5b906000526020600020906002020160000160009054906101000a900473ffffffffffffffffffffffffffffffffffffffff1673ffffffffffffffffffffffffffffffffffffffff166108fc6001848154811061176f5761176e612ba6565b5b90600052602060002090600a0201600701838154811061179257611791612ba6565b5b9060005260206000209060020201600101549081150290604051600060405180830381858888f193505050501580156117cf573d6000803e3d6000fd5b5080806001019150506116a9565b50600181815481106117f2576117f1612ba6565b5b90600052602060002090600a020160040160019054906101000a900473ffffffffffffffffffffffffffffffffffffffff1673ffffffffffffffffffffffffffffffffffffffff166108fc6001838154811061185157611850612ba6565b5b90600052602060002090600a0201600601549081150290604051600060405180830381858888f1935050505015801561188e573d6000803e3d6000fd5b507feca2515adbf9d70b2375fc2dfeff982a4d45e44e8531fbb8d462d33fe07ed2ff83600183815481106118c5576118c4612ba6565b5b90600052602060002090600a020160060154600184815481106118eb576118ea612ba6565b5b90600052602060002090600a0201600301546119079190612e6c565b604051611915929190612cf8565b60405180910390a160006001828154811061193357611932612ba6565b5b90600052602060002090600a020160030181905550505050565b600080600090505b835181101561199e5761198284828151811061197457611973612ba6565b5b602002602001015184611de1565b156119915760019150506119a4565b8080600101915050611955565b50600090505b92915050565b600080600090505b600180549050811015611a9157611a7683600183815481106119d7576119d6612ba6565b5b90600052602060002090600a020160090180546119f39061281f565b80601f0160208091040260200160405190810160405280929190818152602001828054611a1f9061281f565b8015611a6c5780601f10611a4157610100808354040283529160200191611a6c565b820191906000526020600020905b815481529060010190602001808311611a4f57829003601f168201915b5050505050611de1565b15611a845780915050611ab6565b80806001019150506119b2565b507fffffffffffffffffffffffffffffffffffffffffffffffffffffffffffffffff90505b919050565b600080600090505b8251811015611bdc57611bc16000805480602002602001604051908101604052809291908181526020016000905b82821015611b9d578382906000526020600020018054611b109061281f565b80601f0160208091040260200160405190810160405280929190818152602001828054611b3c9061281f565b8015611b895780601f10611b5e57610100808354040283529160200191611b89565b820191906000526020600020905b815481529060010190602001808311611b6c57829003601f168201915b505050505081526020019060010190611af1565b50505050848381518110611bb457611bb3612ba6565b5b602002602001015161194d565b611bcf576000915050611be2565b8080600101915050611ac3565b50600190505b919050565b606060006040518060400160405280601081526020017f303132333435363738396162636465660000000000000000000000000000000081525090506000604067ffffffffffffffff811115611c4057611c3f611ee7565b5b6040519080825280601f01601f191660200182016040528015611c725781602001600182028036833780820191505090505b50905060005b6020811015611dd657826004868360208110611c9757611c96612ba6565b5b1a60f81b7effffffffffffffffffffffffffffffffffffffffffffffffffffffffffffff1916901c60f81c60ff1681518110611cd657611cd5612ba6565b5b602001015160f81c60f81b82600283611cef9190612c04565b81518110611d0057611cff612ba6565b5b60200101907effffffffffffffffffffffffffffffffffffffffffffffffffffffffffffff1916908160001a90535082600f60f81b868360208110611d4857611d47612ba6565b5b1a60f81b1660f81c60ff1681518110611d6457611d63612ba6565b5b602001015160f81c60f81b826001600284611d7f9190612c04565b611d899190612e6c565b81518110611d9a57611d99612ba6565b5b60200101907effffffffffffffffffffffffffffffffffffffffffffffffffffffffffffff1916908160001a9053508080600101915050611c78565b508092505050919050565b60008083905060008390508051825114611e0057600092505050611eb2565b60005b8251811015611eaa57818181518110611e1f57611e1e612ba6565b5b602001015160f81c60f81b7effffffffffffffffffffffffffffffffffffffffffffffffffffffffffffff1916838281518110611e5f57611e5e612ba6565b5b602001015160f81c60f81b7effffffffffffffffffffffffffffffffffffffffffffffffffffffffffffff191614611e9d5760009350505050611eb2565b8080600101915050611e03565b506001925050505b92915050565b6000604051905090565b600080fd5b600080fd5b600080fd5b600080fd5b6000601f19601f8301169050919050565b7f4e487b7100000000000000000000000000000000000000000000000000000000600052604160045260246000fd5b611f1f82611ed6565b810181811067ffffffffffffffff82111715611f3e57611f3d611ee7565b5b80604052505050565b6000611f51611eb8565b9050611f5d8282611f16565b919050565b600067ffffffffffffffff821115611f7d57611f7c611ee7565b5b611f8682611ed6565b9050602081019050919050565b82818337600083830152505050565b6000611fb5611fb084611f62565b611f47565b905082815260208101848484011115611fd157611fd0611ed1565b5b611fdc848285611f93565b509392505050565b600082601f830112611ff957611ff8611ecc565b5b8135612009848260208601611fa2565b91505092915050565b60006020828403121561202857612027611ec2565b5b600082013567ffffffffffffffff81111561204657612045611ec7565b5b61205284828501611fe4565b91505092915050565b600081519050919050565b600082825260208201905092915050565b6000819050602082019050919050565b600081519050919050565b600082825260208201905092915050565b60005b838110156120c15780820151818401526020810190506120a6565b60008484015250505050565b60006120d882612087565b6120e28185612092565b93506120f28185602086016120a3565b6120fb81611ed6565b840191505092915050565b600061211283836120cd565b905092915050565b6000602082019050919050565b60006121328261205b565b61213c8185612066565b93508360208202850161214e85612077565b8060005b8581101561218a578484038952815161216b8582612106565b94506121768361211a565b925060208a01995050600181019050612152565b50829750879550505050505092915050565b600060208201905081810360008301526121b68184612127565b905092915050565b6000819050919050565b6121d1816121be565b82525050565b60006020820190506121ec60008301846121c8565b92915050565b600067ffffffffffffffff82111561220d5761220c611ee7565b5b602082029050602081019050919050565b600080fd5b6000612236612231846121f2565b611f47565b905080838252602082019050602084028301858111156122595761225861221e565b5b835b818110156122a057803567ffffffffffffffff81111561227e5761227d611ecc565b5b80860161228b8982611fe4565b8552602085019450505060208101905061225b565b5050509392505050565b600082601f8301126122bf576122be611ecc565b5b81356122cf848260208601612223565b91505092915050565b6122e1816121be565b81146122ec57600080fd5b50565b6000813590506122fe816122d8565b92915050565b6000806000806080858703121561231e5761231d611ec2565b5b600085013567ffffffffffffffff81111561233c5761233b611ec7565b5b61234887828801611fe4565b945050602085013567ffffffffffffffff81111561236957612368611ec7565b5b612375878288016122aa565b9350506040612386878288016122ef565b9250506060612397878288016122ef565b91505092959194509250565b600082825260208201905092915050565b60006123bf82612087565b6123c981856123a3565b93506123d98185602086016120a3565b6123e281611ed6565b840191505092915050565b6000602082019050818103600083015261240781846123b4565b905092915050565b600081519050919050565b600082825260208201905092915050565b6000819050602082019050919050565b600082825260208201905092915050565b60006124578261205b565b612461818561243b565b93508360208202850161247385612077565b8060005b858110156124af57848403895281516124908582612106565b945061249b8361211a565b925060208a01995050600181019050612477565b50829750879550505050505092915050565b6124ca816121be565b82525050565b60008115159050919050565b6124e5816124d0565b82525050565b600073ffffffffffffffffffffffffffffffffffffffff82169050919050565b6000612516826124eb565b9050919050565b6125268161250b565b82525050565b600081519050919050565b600082825260208201905092915050565b6000819050602082019050919050565b60408201600082015161256e600085018261251d565b50602082015161258160208501826124c1565b50505050565b60006125938383612558565b60408301905092915050565b6000602082019050919050565b60006125b78261252c565b6125c18185612537565b93506125cc83612548565b8060005b838110156125fd5781516125e48882612587565b97506125ef8361259f565b9250506001810190506125d0565b5085935050505092915050565b600061016083016000830151848203600086015261262882826120cd565b91505060208301518482036020860152612642828261244c565b915050604083015161265760408601826124c1565b50606083015161266a60608601826124c1565b50608083015161267d60808601826124dc565b5060a083015161269060a086018261251d565b5060c08301516126a360c08601826124c1565b5060e08301516126b660e08601826124c1565b506101008301518482036101008601526126d082826125ac565b9150506101208301516126e76101208601826124dc565b5061014083015184820361014086015261270182826120cd565b9150508091505092915050565b600061271a838361260a565b905092915050565b6000602082019050919050565b600061273a8261240f565b612744818561241a565b9350836020820285016127568561242b565b8060005b858110156127925784840389528151612773858261270e565b945061277e83612722565b925060208a0199505060018101905061275a565b50829750879550505050505092915050565b600060208201905081810360008301526127be818461272f565b905092915050565b6127cf816124d0565b82525050565b60006020820190506127ea60008301846127c6565b92915050565b7f4e487b7100000000000000000000000000000000000000000000000000000000600052602260045260246000fd5b6000600282049050600182168061283757607f821691505b60208210810361284a576128496127f0565b5b50919050565b7f416c726561647920696e2063617465676f726965730000000000000000000000600082015250565b60006128866015836123a3565b915061289182612850565b602082019050919050565b600060208201905081810360008301526128b581612879565b9050919050565b60008190508160005260206000209050919050565b60006020601f8301049050919050565b600082821b905092915050565b60006008830261291e7fffffffffffffffffffffffffffffffffffffffffffffffffffffffffffffffff826128e1565b61292886836128e1565b95508019841693508086168417925050509392505050565b6000819050919050565b600061296561296061295b846121be565b612940565b6121be565b9050919050565b6000819050919050565b61297f8361294a565b61299361298b8261296c565b8484546128ee565b825550505050565b600090565b6129a861299b565b6129b3818484612976565b505050565b5b818110156129d7576129cc6000826129a0565b6001810190506129b9565b5050565b601f821115612a1c576129ed816128bc565b6129f6846128d1565b81016020851015612a05578190505b612a19612a11856128d1565b8301826129b8565b50505b505050565b600082821c905092915050565b6000612a3f60001984600802612a21565b1980831691505092915050565b6000612a588383612a2e565b9150826002028217905092915050565b612a7182612087565b67ffffffffffffffff811115612a8a57612a89611ee7565b5b612a94825461281f565b612a9f8282856129db565b600060209050601f831160018114612ad25760008415612ac0578287015190505b612aca8582612a4c565b865550612b32565b601f198416612ae0866128bc565b60005b82811015612b0857848901518255600182019150602085019450602081019050612ae3565b86831015612b255784890151612b21601f891682612a2e565b8355505b6001600288020188555050505b505050505050565b7f70726f6a65637420646f65736e74206578697374000000000000000000000000600082015250565b6000612b706014836123a3565b9150612b7b82612b3a565b602082019050919050565b60006020820190508181036000830152612b9f81612b63565b9050919050565b7f4e487b7100000000000000000000000000000000000000000000000000000000600052603260045260246000fd5b7f4e487b7100000000000000000000000000000000000000000000000000000000600052601160045260246000fd5b6000612c0f826121be565b9150612c1a836121be565b9250828202612c28816121be565b91508282048414831517612c3f57612c3e612bd5565b5b5092915050565b7f4e487b7100000000000000000000000000000000000000000000000000000000600052601260045260246000fd5b6000612c80826121be565b9150612c8b836121be565b925082612c9b57612c9a612c46565b5b828204905092915050565b6000819050919050565b6000612cbb82612ca6565b91507f7fffffffffffffffffffffffffffffffffffffffffffffffffffffffffffffff8203612ced57612cec612bd5565b5b600182019050919050565b60006040820190508181036000830152612d1281856123b4565b9050612d2160208301846121c8565b9392505050565b7f6861736820646f65736e74206578697374000000000000000000000000000000600082015250565b6000612d5e6011836123a3565b9150612d6982612d28565b602082019050919050565b60006020820190508181036000830152612d8d81612d51565b9050919050565b7f616c726561647920636c61696d65640000000000000000000000000000000000600082015250565b6000612dca600f836123a3565b9150612dd582612d94565b602082019050919050565b60006020820190508181036000830152612df981612dbd565b9050919050565b7f6e6f742066696e69736865640000000000000000000000000000000000000000600082015250565b6000612e36600c836123a3565b9150612e4182612e00565b602082019050919050565b60006020820190508181036000830152612e6581612e29565b9050919050565b6000612e77826121be565b9150612e82836121be565b9250828201905080821115612e9a57612e99612bd5565b5b92915050565b6000612eab826121be565b9150612eb6836121be565b9250828203905081811115612ece57612ecd612bd5565b5b92915050565b7f63617465676f7269657320617265206e6f742076616c69640000000000000000600082015250565b6000612f0a6018836123a3565b9150612f1582612ed4565b602082019050919050565b60006020820190508181036000830152612f3981612efd565b9050919050565b7f70657263656e7461676520646f65736e74206d616b652073656e736500000000600082015250565b6000612f76601c836123a3565b9150612f8182612f40565b602082019050919050565b60006020820190508181036000830152612fa581612f69565b9050919050565b6000612fb7826121be565b91507fffffffffffffffffffffffffffffffffffffffffffffffffffffffffffffffff8203612fe957612fe8612bd5565b5b600182019050919050565b600081546130018161281f565b61300b81866123a3565b94506001821660008114613026576001811461303c5761306f565b60ff19831686528115156020028601935061306f565b613045856128bc565b60005b8381101561306757815481890152600182019150602081019050613048565b808801955050505b50505092915050565b6130818161250b565b82525050565b600060608201905081810360008301526130a18186612ff4565b90506130b060208301856121c8565b6130bd6040830184613078565b949350505050565b7f70726f6a6563742066696e697368656400000000000000000000000000000000600082015250565b60006130fb6010836123a3565b9150613106826130c5565b602082019050919050565b6000602082019050818103600083015261312a816130ee565b9050919050565b6000606082019050818103600083015261314b81866123b4565b905061315a60208301856121c8565b6131676040830184613078565b949350505050565b7f6e6f74206f776e65720000000000000000000000000000000000000000000000600082015250565b60006131a56009836123a3565b91506131b08261316f565b602082019050919050565b600060208201905081810360008301526131d481613198565b9050919050565b7f66696e69736865642066756e6400000000000000000000000000000000000000600082015250565b6000613211600d836123a3565b915061321c826131db565b602082019050919050565b6000602082019050818103600083015261324081613204565b905091905056fea26469706673582212209adc4f3af86be94a8db88e7be9f88064a877b95cb30b6e5f628ef90958f4cb7064736f6c63430008180033",
          "opcodes": "PUSH1 0x80 PUSH1 0x40 MSTORE PUSH3 0x32C55B PUSH1 0x2 SSTORE CALLVALUE DUP1 ISZERO PUSH3 0x18 JUMPI PUSH1 0x0 DUP1 REVERT JUMPDEST POP PUSH1 0x0 DUP1 PUSH1 0x1 DUP2 SLOAD ADD DUP1 DUP3 SSTORE DUP1 SWAP2 POP POP PUSH1 0x1 SWAP1 SUB SWAP1 PUSH1 0x0 MSTORE PUSH1 0x20 PUSH1 0x0 KECCAK256 ADD PUSH1 0x0 PUSH1 0x40 MLOAD DUP1 PUSH1 0x40 ADD PUSH1 0x40 MSTORE DUP1 PUSH1 0x2 DUP2 MSTORE PUSH1 0x20 ADD PUSH32 0x4149000000000000000000000000000000000000000000000000000000000000 DUP2 MSTORE POP SWAP1 SWAP2 SWAP1 SWAP2 POP SWAP1 DUP2 PUSH3 0x81 SWAP2 SWAP1 PUSH3 0x36B JUMP JUMPDEST POP PUSH1 0x0 DUP1 PUSH1 0x1 DUP2 SLOAD ADD DUP1 DUP3 SSTORE DUP1 SWAP2 POP POP PUSH1 0x1 SWAP1 SUB SWAP1 PUSH1 0x0 MSTORE PUSH1 0x20 PUSH1 0x0 KECCAK256 ADD PUSH1 0x0 PUSH1 0x40 MLOAD DUP1 PUSH1 0x40 ADD PUSH1 0x40 MSTORE DUP1 PUSH1 0x4 DUP2 MSTORE PUSH1 0x20 ADD PUSH32 0x4461746100000000000000000000000000000000000000000000000000000000 DUP2 MSTORE POP SWAP1 SWAP2 SWAP1 SWAP2 POP SWAP1 DUP2 PUSH3 0xEA SWAP2 SWAP1 PUSH3 0x36B JUMP JUMPDEST POP PUSH3 0x452 JUMP JUMPDEST PUSH1 0x0 DUP2 MLOAD SWAP1 POP SWAP2 SWAP1 POP JUMP JUMPDEST PUSH32 0x4E487B7100000000000000000000000000000000000000000000000000000000 PUSH1 0x0 MSTORE PUSH1 0x41 PUSH1 0x4 MSTORE PUSH1 0x24 PUSH1 0x0 REVERT JUMPDEST PUSH32 0x4E487B7100000000000000000000000000000000000000000000000000000000 PUSH1 0x0 MSTORE PUSH1 0x22 PUSH1 0x4 MSTORE PUSH1 0x24 PUSH1 0x0 REVERT JUMPDEST PUSH1 0x0 PUSH1 0x2 DUP3 DIV SWAP1 POP PUSH1 0x1 DUP3 AND DUP1 PUSH3 0x173 JUMPI PUSH1 0x7F DUP3 AND SWAP2 POP JUMPDEST PUSH1 0x20 DUP3 LT DUP2 SUB PUSH3 0x189 JUMPI PUSH3 0x188 PUSH3 0x12B JUMP JUMPDEST JUMPDEST POP SWAP2 SWAP1 POP JUMP JUMPDEST PUSH1 0x0 DUP2 SWAP1 POP DUP2 PUSH1 0x0 MSTORE PUSH1 0x20 PUSH1 0x0 KECCAK256 SWAP1 POP SWAP2 SWAP1 POP JUMP JUMPDEST PUSH1 0x0 PUSH1 0x20 PUSH1 0x1F DUP4 ADD DIV SWAP1 POP SWAP2 SWAP1 POP JUMP JUMPDEST PUSH1 0x0 DUP3 DUP3 SHL SWAP1 POP SWAP3 SWAP2 POP POP JUMP JUMPDEST PUSH1 0x0 PUSH1 0x8 DUP4 MUL PUSH3 0x1F3 PUSH32 0xFFFFFFFFFFFFFFFFFFFFFFFFFFFFFFFFFFFFFFFFFFFFFFFFFFFFFFFFFFFFFFFF DUP3 PUSH3 0x1B4 JUMP JUMPDEST PUSH3 0x1FF DUP7 DUP4 PUSH3 0x1B4 JUMP JUMPDEST SWAP6 POP DUP1 NOT DUP5 AND SWAP4 POP DUP1 DUP7 AND DUP5 OR SWAP3 POP POP POP SWAP4 SWAP3 POP POP POP JUMP JUMPDEST PUSH1 0x0 DUP2 SWAP1 POP SWAP2 SWAP1 POP JUMP JUMPDEST PUSH1 0x0 DUP2 SWAP1 POP SWAP2 SWAP1 POP JUMP JUMPDEST PUSH1 0x0 PUSH3 0x24C PUSH3 0x246 PUSH3 0x240 DUP5 PUSH3 0x217 JUMP JUMPDEST PUSH3 0x221 JUMP JUMPDEST PUSH3 0x217 JUMP JUMPDEST SWAP1 POP SWAP2 SWAP1 POP JUMP JUMPDEST PUSH1 0x0 DUP2 SWAP1 POP SWAP2 SWAP1 POP JUMP JUMPDEST PUSH3 0x268 DUP4 PUSH3 0x22B JUMP JUMPDEST PUSH3 0x280 PUSH3 0x277 DUP3 PUSH3 0x253 JUMP JUMPDEST DUP5 DUP5 SLOAD PUSH3 0x1C1 JUMP JUMPDEST DUP3 SSTORE POP POP POP POP JUMP JUMPDEST PUSH1 0x0 SWAP1 JUMP JUMPDEST PUSH3 0x297 PUSH3 0x288 JUMP JUMPDEST PUSH3 0x2A4 DUP2 DUP5 DUP5 PUSH3 0x25D JUMP JUMPDEST POP POP POP JUMP JUMPDEST JUMPDEST DUP2 DUP2 LT ISZERO PUSH3 0x2CC JUMPI PUSH3 0x2C0 PUSH1 0x0 DUP3 PUSH3 0x28D JUMP JUMPDEST PUSH1 0x1 DUP2 ADD SWAP1 POP PUSH3 0x2AA JUMP JUMPDEST POP POP JUMP JUMPDEST PUSH1 0x1F DUP3 GT ISZERO PUSH3 0x31B JUMPI PUSH3 0x2E5 DUP2 PUSH3 0x18F JUMP JUMPDEST PUSH3 0x2F0 DUP5 PUSH3 0x1A4 JUMP JUMPDEST DUP2 ADD PUSH1 0x20 DUP6 LT ISZERO PUSH3 0x300 JUMPI DUP2 SWAP1 POP JUMPDEST PUSH3 0x318 PUSH3 0x30F DUP6 PUSH3 0x1A4 JUMP JUMPDEST DUP4 ADD DUP3 PUSH3 0x2A9 JUMP JUMPDEST POP POP JUMPDEST POP POP POP JUMP JUMPDEST PUSH1 0x0 DUP3 DUP3 SHR SWAP1 POP SWAP3 SWAP2 POP POP JUMP JUMPDEST PUSH1 0x0 PUSH3 0x340 PUSH1 0x0 NOT DUP5 PUSH1 0x8 MUL PUSH3 0x320 JUMP JUMPDEST NOT DUP1 DUP4 AND SWAP2 POP POP SWAP3 SWAP2 POP POP JUMP JUMPDEST PUSH1 0x0 PUSH3 0x35B DUP4 DUP4 PUSH3 0x32D JUMP JUMPDEST SWAP2 POP DUP3 PUSH1 0x2 MUL DUP3 OR SWAP1 POP SWAP3 SWAP2 POP POP JUMP JUMPDEST PUSH3 0x376 DUP3 PUSH3 0xF1 JUMP JUMPDEST PUSH8 0xFFFFFFFFFFFFFFFF DUP2 GT ISZERO PUSH3 0x392 JUMPI PUSH3 0x391 PUSH3 0xFC JUMP JUMPDEST JUMPDEST PUSH3 0x39E DUP3 SLOAD PUSH3 0x15A JUMP JUMPDEST PUSH3 0x3AB DUP3 DUP3 DUP6 PUSH3 0x2D0 JUMP JUMPDEST PUSH1 0x0 PUSH1 0x20 SWAP1 POP PUSH1 0x1F DUP4 GT PUSH1 0x1 DUP2 EQ PUSH3 0x3E3 JUMPI PUSH1 0x0 DUP5 ISZERO PUSH3 0x3CE JUMPI DUP3 DUP8 ADD MLOAD SWAP1 POP JUMPDEST PUSH3 0x3DA DUP6 DUP3 PUSH3 0x34D JUMP JUMPDEST DUP7 SSTORE POP PUSH3 0x44A JUMP JUMPDEST PUSH1 0x1F NOT DUP5 AND PUSH3 0x3F3 DUP7 PUSH3 0x18F JUMP JUMPDEST PUSH1 0x0 JUMPDEST DUP3 DUP2 LT ISZERO PUSH3 0x41D JUMPI DUP5 DUP10 ADD MLOAD DUP3 SSTORE PUSH1 0x1 DUP3 ADD SWAP2 POP PUSH1 0x20 DUP6 ADD SWAP5 POP PUSH1 0x20 DUP2 ADD SWAP1 POP PUSH3 0x3F6 JUMP JUMPDEST DUP7 DUP4 LT ISZERO PUSH3 0x43D JUMPI DUP5 DUP10 ADD MLOAD PUSH3 0x439 PUSH1 0x1F DUP10 AND DUP3 PUSH3 0x32D JUMP JUMPDEST DUP4 SSTORE POP JUMPDEST PUSH1 0x1 PUSH1 0x2 DUP9 MUL ADD DUP9 SSTORE POP POP POP JUMPDEST POP POP POP POP POP POP JUMP JUMPDEST PUSH2 0x327D DUP1 PUSH3 0x462 PUSH1 0x0 CODECOPY PUSH1 0x0 RETURN INVALID PUSH1 0x80 PUSH1 0x40 MSTORE PUSH1 0x4 CALLDATASIZE LT PUSH2 0x91 JUMPI PUSH1 0x0 CALLDATALOAD PUSH1 0xE0 SHR DUP1 PUSH4 0xA19C8565 GT PUSH2 0x59 JUMPI DUP1 PUSH4 0xA19C8565 EQ PUSH2 0x16C JUMPI DUP1 PUSH4 0xD13319C4 EQ PUSH2 0x188 JUMPI DUP1 PUSH4 0xDCC60128 EQ PUSH2 0x1B3 JUMPI DUP1 PUSH4 0xF6B58310 EQ PUSH2 0x1DE JUMPI DUP1 PUSH4 0xFE5F2E88 EQ PUSH2 0x20E JUMPI PUSH2 0x91 JUMP JUMPDEST DUP1 PUSH4 0x2E0DCBF7 EQ PUSH2 0x96 JUMPI DUP1 PUSH4 0x354446A3 EQ PUSH2 0xBF JUMPI DUP1 PUSH4 0x38C79AA7 EQ PUSH2 0xDB JUMPI DUP1 PUSH4 0x4DB0412C EQ PUSH2 0x104 JUMPI DUP1 PUSH4 0x7D2B9058 EQ PUSH2 0x12F JUMPI JUMPDEST PUSH1 0x0 DUP1 REVERT JUMPDEST CALLVALUE DUP1 ISZERO PUSH2 0xA2 JUMPI PUSH1 0x0 DUP1 REVERT JUMPDEST POP PUSH2 0xBD PUSH1 0x4 DUP1 CALLDATASIZE SUB DUP2 ADD SWAP1 PUSH2 0xB8 SWAP2 SWAP1 PUSH2 0x2012 JUMP JUMPDEST PUSH2 0x237 JUMP JUMPDEST STOP JUMPDEST PUSH2 0xD9 PUSH1 0x4 DUP1 CALLDATASIZE SUB DUP2 ADD SWAP1 PUSH2 0xD4 SWAP2 SWAP1 PUSH2 0x2012 JUMP JUMPDEST PUSH2 0x38C JUMP JUMPDEST STOP JUMPDEST CALLVALUE DUP1 ISZERO PUSH2 0xE7 JUMPI PUSH1 0x0 DUP1 REVERT JUMPDEST POP PUSH2 0x102 PUSH1 0x4 DUP1 CALLDATASIZE SUB DUP2 ADD SWAP1 PUSH2 0xFD SWAP2 SWAP1 PUSH2 0x2012 JUMP JUMPDEST PUSH2 0x5B7 JUMP JUMPDEST STOP JUMPDEST CALLVALUE DUP1 ISZERO PUSH2 0x110 JUMPI PUSH1 0x0 DUP1 REVERT JUMPDEST POP PUSH2 0x119 PUSH2 0x8C1 JUMP JUMPDEST PUSH1 0x40 MLOAD PUSH2 0x126 SWAP2 SWAP1 PUSH2 0x219C JUMP JUMPDEST PUSH1 0x40 MLOAD DUP1 SWAP2 SUB SWAP1 RETURN JUMPDEST CALLVALUE DUP1 ISZERO PUSH2 0x13B JUMPI PUSH1 0x0 DUP1 REVERT JUMPDEST POP PUSH2 0x156 PUSH1 0x4 DUP1 CALLDATASIZE SUB DUP2 ADD SWAP1 PUSH2 0x151 SWAP2 SWAP1 PUSH2 0x2012 JUMP JUMPDEST PUSH2 0x99A JUMP JUMPDEST PUSH1 0x40 MLOAD PUSH2 0x163 SWAP2 SWAP1 PUSH2 0x21D7 JUMP JUMPDEST PUSH1 0x40 MLOAD DUP1 SWAP2 SUB SWAP1 RETURN JUMPDEST PUSH2 0x186 PUSH1 0x4 DUP1 CALLDATASIZE SUB DUP2 ADD SWAP1 PUSH2 0x181 SWAP2 SWAP1 PUSH2 0x2304 JUMP JUMPDEST PUSH2 0xA6E JUMP JUMPDEST STOP JUMPDEST CALLVALUE DUP1 ISZERO PUSH2 0x194 JUMPI PUSH1 0x0 DUP1 REVERT JUMPDEST POP PUSH2 0x19D PUSH2 0xCE7 JUMP JUMPDEST PUSH1 0x40 MLOAD PUSH2 0x1AA SWAP2 SWAP1 PUSH2 0x23ED JUMP JUMPDEST PUSH1 0x40 MLOAD DUP1 SWAP2 SUB SWAP1 RETURN JUMPDEST CALLVALUE DUP1 ISZERO PUSH2 0x1BF JUMPI PUSH1 0x0 DUP1 REVERT JUMPDEST POP PUSH2 0x1C8 PUSH2 0xD25 JUMP JUMPDEST PUSH1 0x40 MLOAD PUSH2 0x1D5 SWAP2 SWAP1 PUSH2 0x27A4 JUMP JUMPDEST PUSH1 0x40 MLOAD DUP1 SWAP2 SUB SWAP1 RETURN JUMPDEST PUSH2 0x1F8 PUSH1 0x4 DUP1 CALLDATASIZE SUB DUP2 ADD SWAP1 PUSH2 0x1F3 SWAP2 SWAP1 PUSH2 0x2012 JUMP JUMPDEST PUSH2 0x10F5 JUMP JUMPDEST PUSH1 0x40 MLOAD PUSH2 0x205 SWAP2 SWAP1 PUSH2 0x27D5 JUMP JUMPDEST PUSH1 0x40 MLOAD DUP1 SWAP2 SUB SWAP1 RETURN JUMPDEST CALLVALUE DUP1 ISZERO PUSH2 0x21A JUMPI PUSH1 0x0 DUP1 REVERT JUMPDEST POP PUSH2 0x235 PUSH1 0x4 DUP1 CALLDATASIZE SUB DUP2 ADD SWAP1 PUSH2 0x230 SWAP2 SWAP1 PUSH2 0x2012 JUMP JUMPDEST PUSH2 0x1506 JUMP JUMPDEST STOP JUMPDEST DUP1 PUSH2 0x313 PUSH1 0x0 DUP1 SLOAD DUP1 PUSH1 0x20 MUL PUSH1 0x20 ADD PUSH1 0x40 MLOAD SWAP1 DUP2 ADD PUSH1 0x40 MSTORE DUP1 SWAP3 SWAP2 SWAP1 DUP2 DUP2 MSTORE PUSH1 0x20 ADD PUSH1 0x0 SWAP1 JUMPDEST DUP3 DUP3 LT ISZERO PUSH2 0x309 JUMPI DUP4 DUP3 SWAP1 PUSH1 0x0 MSTORE PUSH1 0x20 PUSH1 0x0 KECCAK256 ADD DUP1 SLOAD PUSH2 0x27C SWAP1 PUSH2 0x281F JUMP JUMPDEST DUP1 PUSH1 0x1F ADD PUSH1 0x20 DUP1 SWAP2 DIV MUL PUSH1 0x20 ADD PUSH1 0x40 MLOAD SWAP1 DUP2 ADD PUSH1 0x40 MSTORE DUP1 SWAP3 SWAP2 SWAP1 DUP2 DUP2 MSTORE PUSH1 0x20 ADD DUP3 DUP1 SLOAD PUSH2 0x2A8 SWAP1 PUSH2 0x281F JUMP JUMPDEST DUP1 ISZERO PUSH2 0x2F5 JUMPI DUP1 PUSH1 0x1F LT PUSH2 0x2CA JUMPI PUSH2 0x100 DUP1 DUP4 SLOAD DIV MUL DUP4 MSTORE SWAP2 PUSH1 0x20 ADD SWAP2 PUSH2 0x2F5 JUMP JUMPDEST DUP3 ADD SWAP2 SWAP1 PUSH1 0x0 MSTORE PUSH1 0x20 PUSH1 0x0 KECCAK256 SWAP1 JUMPDEST DUP2 SLOAD DUP2 MSTORE SWAP1 PUSH1 0x1 ADD SWAP1 PUSH1 0x20 ADD DUP1 DUP4 GT PUSH2 0x2D8 JUMPI DUP3 SWAP1 SUB PUSH1 0x1F AND DUP3 ADD SWAP2 JUMPDEST POP POP POP POP POP DUP2 MSTORE PUSH1 0x20 ADD SWAP1 PUSH1 0x1 ADD SWAP1 PUSH2 0x25D JUMP JUMPDEST POP POP POP POP DUP3 PUSH2 0x194D JUMP JUMPDEST ISZERO PUSH2 0x353 JUMPI PUSH1 0x40 MLOAD PUSH32 0x8C379A000000000000000000000000000000000000000000000000000000000 DUP2 MSTORE PUSH1 0x4 ADD PUSH2 0x34A SWAP1 PUSH2 0x289C JUMP JUMPDEST PUSH1 0x40 MLOAD DUP1 SWAP2 SUB SWAP1 REVERT JUMPDEST PUSH1 0x0 DUP3 SWAP1 DUP1 PUSH1 0x1 DUP2 SLOAD ADD DUP1 DUP3 SSTORE DUP1 SWAP2 POP POP PUSH1 0x1 SWAP1 SUB SWAP1 PUSH1 0x0 MSTORE PUSH1 0x20 PUSH1 0x0 KECCAK256 ADD PUSH1 0x0 SWAP1 SWAP2 SWAP1 SWAP2 SWAP1 SWAP2 POP SWAP1 DUP2 PUSH2 0x387 SWAP2 SWAP1 PUSH2 0x2A68 JUMP JUMPDEST POP POP POP JUMP JUMPDEST PUSH1 0x0 PUSH2 0x397 DUP3 PUSH2 0x19AA JUMP JUMPDEST SWAP1 POP PUSH32 0xFFFFFFFFFFFFFFFFFFFFFFFFFFFFFFFFFFFFFFFFFFFFFFFFFFFFFFFFFFFFFFFF DUP2 SUB PUSH2 0x3FB JUMPI PUSH1 0x40 MLOAD PUSH32 0x8C379A000000000000000000000000000000000000000000000000000000000 DUP2 MSTORE PUSH1 0x4 ADD PUSH2 0x3F2 SWAP1 PUSH2 0x2B86 JUMP JUMPDEST PUSH1 0x40 MLOAD DUP1 SWAP2 SUB SWAP1 REVERT JUMPDEST PUSH1 0x0 DUP2 SWAP1 POP PUSH1 0x0 JUMPDEST PUSH1 0x1 DUP3 DUP2 SLOAD DUP2 LT PUSH2 0x417 JUMPI PUSH2 0x416 PUSH2 0x2BA6 JUMP JUMPDEST JUMPDEST SWAP1 PUSH1 0x0 MSTORE PUSH1 0x20 PUSH1 0x0 KECCAK256 SWAP1 PUSH1 0xA MUL ADD PUSH1 0x7 ADD DUP1 SLOAD SWAP1 POP DUP2 LT ISZERO PUSH2 0x578 JUMPI PUSH1 0x1 DUP3 DUP2 SLOAD DUP2 LT PUSH2 0x447 JUMPI PUSH2 0x446 PUSH2 0x2BA6 JUMP JUMPDEST JUMPDEST SWAP1 PUSH1 0x0 MSTORE PUSH1 0x20 PUSH1 0x0 KECCAK256 SWAP1 PUSH1 0xA MUL ADD PUSH1 0x7 ADD DUP2 DUP2 SLOAD DUP2 LT PUSH2 0x46A JUMPI PUSH2 0x469 PUSH2 0x2BA6 JUMP JUMPDEST JUMPDEST SWAP1 PUSH1 0x0 MSTORE PUSH1 0x20 PUSH1 0x0 KECCAK256 SWAP1 PUSH1 0x2 MUL ADD PUSH1 0x0 ADD PUSH1 0x0 SWAP1 SLOAD SWAP1 PUSH2 0x100 EXP SWAP1 DIV PUSH20 0xFFFFFFFFFFFFFFFFFFFFFFFFFFFFFFFFFFFFFFFF AND PUSH20 0xFFFFFFFFFFFFFFFFFFFFFFFFFFFFFFFFFFFFFFFF AND PUSH2 0x8FC PUSH1 0x1 DUP5 DUP2 SLOAD DUP2 LT PUSH2 0x4C9 JUMPI PUSH2 0x4C8 PUSH2 0x2BA6 JUMP JUMPDEST JUMPDEST SWAP1 PUSH1 0x0 MSTORE PUSH1 0x20 PUSH1 0x0 KECCAK256 SWAP1 PUSH1 0xA MUL ADD PUSH1 0x3 ADD SLOAD PUSH1 0x1 DUP6 DUP2 SLOAD DUP2 LT PUSH2 0x4EF JUMPI PUSH2 0x4EE PUSH2 0x2BA6 JUMP JUMPDEST JUMPDEST SWAP1 PUSH1 0x0 MSTORE PUSH1 0x20 PUSH1 0x0 KECCAK256 SWAP1 PUSH1 0xA MUL ADD PUSH1 0x7 ADD DUP5 DUP2 SLOAD DUP2 LT PUSH2 0x512 JUMPI PUSH2 0x511 PUSH2 0x2BA6 JUMP JUMPDEST JUMPDEST SWAP1 PUSH1 0x0 MSTORE PUSH1 0x20 PUSH1 0x0 KECCAK256 SWAP1 PUSH1 0x2 MUL ADD PUSH1 0x1 ADD SLOAD CALLVALUE PUSH2 0x52F SWAP2 SWAP1 PUSH2 0x2C04 JUMP JUMPDEST PUSH2 0x539 SWAP2 SWAP1 PUSH2 0x2C75 JUMP JUMPDEST SWAP1 DUP2 ISZERO MUL SWAP1 PUSH1 0x40 MLOAD PUSH1 0x0 PUSH1 0x40 MLOAD DUP1 DUP4 SUB DUP2 DUP6 DUP9 DUP9 CALL SWAP4 POP POP POP POP ISZERO DUP1 ISZERO PUSH2 0x564 JUMPI RETURNDATASIZE PUSH1 0x0 DUP1 RETURNDATACOPY RETURNDATASIZE PUSH1 0x0 REVERT JUMPDEST POP DUP3 DUP1 PUSH2 0x570 SWAP1 PUSH2 0x2CB0 JUMP JUMPDEST SWAP4 POP POP PUSH2 0x403 JUMP JUMPDEST POP PUSH32 0xEC63A3D125B5BD99C45E370EAE004C876C2B27AA83793CAA1BA7018C04B5E86F DUP4 CALLVALUE PUSH1 0x40 MLOAD PUSH2 0x5AA SWAP3 SWAP2 SWAP1 PUSH2 0x2CF8 JUMP JUMPDEST PUSH1 0x40 MLOAD DUP1 SWAP2 SUB SWAP1 LOG1 POP POP POP JUMP JUMPDEST PUSH1 0x0 PUSH2 0x5C2 DUP3 PUSH2 0x19AA JUMP JUMPDEST SWAP1 POP PUSH32 0xFFFFFFFFFFFFFFFFFFFFFFFFFFFFFFFFFFFFFFFFFFFFFFFFFFFFFFFFFFFFFFFF DUP2 SUB PUSH2 0x626 JUMPI PUSH1 0x40 MLOAD PUSH32 0x8C379A000000000000000000000000000000000000000000000000000000000 DUP2 MSTORE PUSH1 0x4 ADD PUSH2 0x61D SWAP1 PUSH2 0x2D74 JUMP JUMPDEST PUSH1 0x40 MLOAD DUP1 SWAP2 SUB SWAP1 REVERT JUMPDEST PUSH1 0x0 DUP2 SWAP1 POP PUSH1 0x1 DUP2 DUP2 SLOAD DUP2 LT PUSH2 0x63F JUMPI PUSH2 0x63E PUSH2 0x2BA6 JUMP JUMPDEST JUMPDEST SWAP1 PUSH1 0x0 MSTORE PUSH1 0x20 PUSH1 0x0 KECCAK256 SWAP1 PUSH1 0xA MUL ADD PUSH1 0x8 ADD PUSH1 0x0 SWAP1 SLOAD SWAP1 PUSH2 0x100 EXP SWAP1 DIV PUSH1 0xFF AND ISZERO PUSH2 0x69E JUMPI PUSH1 0x40 MLOAD PUSH32 0x8C379A000000000000000000000000000000000000000000000000000000000 DUP2 MSTORE PUSH1 0x4 ADD PUSH2 0x695 SWAP1 PUSH2 0x2DE0 JUMP JUMPDEST PUSH1 0x40 MLOAD DUP1 SWAP2 SUB SWAP1 REVERT JUMPDEST PUSH1 0x1 DUP2 DUP2 SLOAD DUP2 LT PUSH2 0x6B2 JUMPI PUSH2 0x6B1 PUSH2 0x2BA6 JUMP JUMPDEST JUMPDEST SWAP1 PUSH1 0x0 MSTORE PUSH1 0x20 PUSH1 0x0 KECCAK256 SWAP1 PUSH1 0xA MUL ADD PUSH1 0x4 ADD PUSH1 0x0 SWAP1 SLOAD SWAP1 PUSH2 0x100 EXP SWAP1 DIV PUSH1 0xFF AND PUSH2 0x710 JUMPI PUSH1 0x40 MLOAD PUSH32 0x8C379A000000000000000000000000000000000000000000000000000000000 DUP2 MSTORE PUSH1 0x4 ADD PUSH2 0x707 SWAP1 PUSH2 0x2E4C JUMP JUMPDEST PUSH1 0x40 MLOAD DUP1 SWAP2 SUB SWAP1 REVERT JUMPDEST PUSH1 0x1 DUP2 DUP2 SLOAD DUP2 LT PUSH2 0x724 JUMPI PUSH2 0x723 PUSH2 0x2BA6 JUMP JUMPDEST JUMPDEST SWAP1 PUSH1 0x0 MSTORE PUSH1 0x20 PUSH1 0x0 KECCAK256 SWAP1 PUSH1 0xA MUL ADD PUSH1 0x4 ADD PUSH1 0x1 SWAP1 SLOAD SWAP1 PUSH2 0x100 EXP SWAP1 DIV PUSH20 0xFFFFFFFFFFFFFFFFFFFFFFFFFFFFFFFFFFFFFFFF AND PUSH20 0xFFFFFFFFFFFFFFFFFFFFFFFFFFFFFFFFFFFFFFFF AND PUSH2 0x8FC PUSH1 0x1 DUP4 DUP2 SLOAD DUP2 LT PUSH2 0x783 JUMPI PUSH2 0x782 PUSH2 0x2BA6 JUMP JUMPDEST JUMPDEST SWAP1 PUSH1 0x0 MSTORE PUSH1 0x20 PUSH1 0x0 KECCAK256 SWAP1 PUSH1 0xA MUL ADD PUSH1 0x2 ADD SLOAD PUSH1 0x1 DUP5 DUP2 SLOAD DUP2 LT PUSH2 0x7A9 JUMPI PUSH2 0x7A8 PUSH2 0x2BA6 JUMP JUMPDEST JUMPDEST SWAP1 PUSH1 0x0 MSTORE PUSH1 0x20 PUSH1 0x0 KECCAK256 SWAP1 PUSH1 0xA MUL ADD PUSH1 0x6 ADD SLOAD PUSH2 0x7C5 SWAP2 SWAP1 PUSH2 0x2E6C JUMP JUMPDEST SWAP1 DUP2 ISZERO MUL SWAP1 PUSH1 0x40 MLOAD PUSH1 0x0 PUSH1 0x40 MLOAD DUP1 DUP4 SUB DUP2 DUP6 DUP9 DUP9 CALL SWAP4 POP POP POP POP ISZERO DUP1 ISZERO PUSH2 0x7F0 JUMPI RETURNDATASIZE PUSH1 0x0 DUP1 RETURNDATACOPY RETURNDATASIZE PUSH1 0x0 REVERT JUMPDEST POP PUSH1 0x1 DUP1 DUP3 DUP2 SLOAD DUP2 LT PUSH2 0x806 JUMPI PUSH2 0x805 PUSH2 0x2BA6 JUMP JUMPDEST JUMPDEST SWAP1 PUSH1 0x0 MSTORE PUSH1 0x20 PUSH1 0x0 KECCAK256 SWAP1 PUSH1 0xA MUL ADD PUSH1 0x8 ADD PUSH1 0x0 PUSH2 0x100 EXP DUP2 SLOAD DUP2 PUSH1 0xFF MUL NOT AND SWAP1 DUP4 ISZERO ISZERO MUL OR SWAP1 SSTORE POP PUSH32 0xE44CC0BF710F82664BF687AC4432C3E69B9ED2AF5C90B53B1B985A965E45AE02 DUP4 PUSH1 0x1 DUP4 DUP2 SLOAD DUP2 LT PUSH2 0x864 JUMPI PUSH2 0x863 PUSH2 0x2BA6 JUMP JUMPDEST JUMPDEST SWAP1 PUSH1 0x0 MSTORE PUSH1 0x20 PUSH1 0x0 KECCAK256 SWAP1 PUSH1 0xA MUL ADD PUSH1 0x2 ADD SLOAD PUSH1 0x1 DUP5 DUP2 SLOAD DUP2 LT PUSH2 0x88A JUMPI PUSH2 0x889 PUSH2 0x2BA6 JUMP JUMPDEST JUMPDEST SWAP1 PUSH1 0x0 MSTORE PUSH1 0x20 PUSH1 0x0 KECCAK256 SWAP1 PUSH1 0xA MUL ADD PUSH1 0x6 ADD SLOAD PUSH2 0x8A6 SWAP2 SWAP1 PUSH2 0x2E6C JUMP JUMPDEST PUSH1 0x40 MLOAD PUSH2 0x8B4 SWAP3 SWAP2 SWAP1 PUSH2 0x2CF8 JUMP JUMPDEST PUSH1 0x40 MLOAD DUP1 SWAP2 SUB SWAP1 LOG1 POP POP POP JUMP JUMPDEST PUSH1 0x60 PUSH1 0x0 DUP1 SLOAD DUP1 PUSH1 0x20 MUL PUSH1 0x20 ADD PUSH1 0x40 MLOAD SWAP1 DUP2 ADD PUSH1 0x40 MSTORE DUP1 SWAP3 SWAP2 SWAP1 DUP2 DUP2 MSTORE PUSH1 0x20 ADD PUSH1 0x0 SWAP1 JUMPDEST DUP3 DUP3 LT ISZERO PUSH2 0x991 JUMPI DUP4 DUP3 SWAP1 PUSH1 0x0 MSTORE PUSH1 0x20 PUSH1 0x0 KECCAK256 ADD DUP1 SLOAD PUSH2 0x904 SWAP1 PUSH2 0x281F JUMP JUMPDEST DUP1 PUSH1 0x1F ADD PUSH1 0x20 DUP1 SWAP2 DIV MUL PUSH1 0x20 ADD PUSH1 0x40 MLOAD SWAP1 DUP2 ADD PUSH1 0x40 MSTORE DUP1 SWAP3 SWAP2 SWAP1 DUP2 DUP2 MSTORE PUSH1 0x20 ADD DUP3 DUP1 SLOAD PUSH2 0x930 SWAP1 PUSH2 0x281F JUMP JUMPDEST DUP1 ISZERO PUSH2 0x97D JUMPI DUP1 PUSH1 0x1F LT PUSH2 0x952 JUMPI PUSH2 0x100 DUP1 DUP4 SLOAD DIV MUL DUP4 MSTORE SWAP2 PUSH1 0x20 ADD SWAP2 PUSH2 0x97D JUMP JUMPDEST DUP3 ADD SWAP2 SWAP1 PUSH1 0x0 MSTORE PUSH1 0x20 PUSH1 0x0 KECCAK256 SWAP1 JUMPDEST DUP2 SLOAD DUP2 MSTORE SWAP1 PUSH1 0x1 ADD SWAP1 PUSH1 0x20 ADD DUP1 DUP4 GT PUSH2 0x960 JUMPI DUP3 SWAP1 SUB PUSH1 0x1F AND DUP3 ADD SWAP2 JUMPDEST POP POP POP POP POP DUP2 MSTORE PUSH1 0x20 ADD SWAP1 PUSH1 0x1 ADD SWAP1 PUSH2 0x8E5 JUMP JUMPDEST POP POP POP POP SWAP1 POP SWAP1 JUMP JUMPDEST PUSH1 0x0 DUP1 PUSH2 0x9A6 DUP4 PUSH2 0x19AA JUMP JUMPDEST SWAP1 POP PUSH32 0xFFFFFFFFFFFFFFFFFFFFFFFFFFFFFFFFFFFFFFFFFFFFFFFFFFFFFFFFFFFFFFFF DUP2 SUB PUSH2 0xA0A JUMPI PUSH1 0x40 MLOAD PUSH32 0x8C379A000000000000000000000000000000000000000000000000000000000 DUP2 MSTORE PUSH1 0x4 ADD PUSH2 0xA01 SWAP1 PUSH2 0x2D74 JUMP JUMPDEST PUSH1 0x40 MLOAD DUP1 SWAP2 SUB SWAP1 REVERT JUMPDEST PUSH1 0x0 DUP2 SWAP1 POP PUSH1 0x1 DUP2 DUP2 SLOAD DUP2 LT PUSH2 0xA23 JUMPI PUSH2 0xA22 PUSH2 0x2BA6 JUMP JUMPDEST JUMPDEST SWAP1 PUSH1 0x0 MSTORE PUSH1 0x20 PUSH1 0x0 KECCAK256 SWAP1 PUSH1 0xA MUL ADD PUSH1 0x3 ADD SLOAD PUSH1 0x1 DUP3 DUP2 SLOAD DUP2 LT PUSH2 0xA49 JUMPI PUSH2 0xA48 PUSH2 0x2BA6 JUMP JUMPDEST JUMPDEST SWAP1 PUSH1 0x0 MSTORE PUSH1 0x20 PUSH1 0x0 KECCAK256 SWAP1 PUSH1 0xA MUL ADD PUSH1 0x2 ADD SLOAD PUSH2 0xA65 SWAP2 SWAP1 PUSH2 0x2EA0 JUMP JUMPDEST SWAP3 POP POP POP SWAP2 SWAP1 POP JUMP JUMPDEST DUP3 DUP2 PUSH2 0xA79 DUP3 PUSH2 0x1ABB JUMP JUMPDEST PUSH2 0xAB8 JUMPI PUSH1 0x40 MLOAD PUSH32 0x8C379A000000000000000000000000000000000000000000000000000000000 DUP2 MSTORE PUSH1 0x4 ADD PUSH2 0xAAF SWAP1 PUSH2 0x2F20 JUMP JUMPDEST PUSH1 0x40 MLOAD DUP1 SWAP2 SUB SWAP1 REVERT JUMPDEST PUSH1 0x64 DUP2 LT DUP1 ISZERO PUSH2 0xAC9 JUMPI POP PUSH1 0x0 DUP2 EQ ISZERO JUMPDEST PUSH2 0xB08 JUMPI PUSH1 0x40 MLOAD PUSH32 0x8C379A000000000000000000000000000000000000000000000000000000000 DUP2 MSTORE PUSH1 0x4 ADD PUSH2 0xAFF SWAP1 PUSH2 0x2F8C JUMP JUMPDEST PUSH1 0x40 MLOAD DUP1 SWAP2 SUB SWAP1 REVERT JUMPDEST PUSH1 0x1 DUP1 DUP2 PUSH1 0x1 DUP2 SLOAD ADD DUP1 DUP3 SSTORE DUP1 SWAP2 POP POP SUB SWAP1 PUSH1 0x0 MSTORE PUSH1 0x20 PUSH1 0x0 KECCAK256 SWAP1 POP POP PUSH1 0x0 PUSH1 0x1 DUP1 DUP1 DUP1 SLOAD SWAP1 POP PUSH2 0xB39 SWAP2 SWAP1 PUSH2 0x2EA0 JUMP JUMPDEST DUP2 SLOAD DUP2 LT PUSH2 0xB4A JUMPI PUSH2 0xB49 PUSH2 0x2BA6 JUMP JUMPDEST JUMPDEST SWAP1 PUSH1 0x0 MSTORE PUSH1 0x20 PUSH1 0x0 KECCAK256 SWAP1 PUSH1 0xA MUL ADD SWAP1 POP DUP7 DUP2 PUSH1 0x0 ADD SWAP1 DUP2 PUSH2 0xB6B SWAP2 SWAP1 PUSH2 0x2A68 JUMP JUMPDEST POP PUSH1 0x0 JUMPDEST DUP7 MLOAD DUP2 LT ISZERO PUSH2 0xBD6 JUMPI DUP2 PUSH1 0x1 ADD DUP8 DUP3 DUP2 MLOAD DUP2 LT PUSH2 0xB8F JUMPI PUSH2 0xB8E PUSH2 0x2BA6 JUMP JUMPDEST JUMPDEST PUSH1 0x20 MUL PUSH1 0x20 ADD ADD MLOAD SWAP1 DUP1 PUSH1 0x1 DUP2 SLOAD ADD DUP1 DUP3 SSTORE DUP1 SWAP2 POP POP PUSH1 0x1 SWAP1 SUB SWAP1 PUSH1 0x0 MSTORE PUSH1 0x20 PUSH1 0x0 KECCAK256 ADD PUSH1 0x0 SWAP1 SWAP2 SWAP1 SWAP2 SWAP1 SWAP2 POP SWAP1 DUP2 PUSH2 0xBC8 SWAP2 SWAP1 PUSH2 0x2A68 JUMP JUMPDEST POP DUP1 DUP1 PUSH1 0x1 ADD SWAP2 POP POP PUSH2 0xB6F JUMP JUMPDEST POP DUP5 DUP2 PUSH1 0x2 ADD DUP2 SWAP1 SSTORE POP PUSH1 0x0 DUP2 PUSH1 0x4 ADD PUSH1 0x0 PUSH2 0x100 EXP DUP2 SLOAD DUP2 PUSH1 0xFF MUL NOT AND SWAP1 DUP4 ISZERO ISZERO MUL OR SWAP1 SSTORE POP CALLER DUP2 PUSH1 0x4 ADD PUSH1 0x1 PUSH2 0x100 EXP DUP2 SLOAD DUP2 PUSH20 0xFFFFFFFFFFFFFFFFFFFFFFFFFFFFFFFFFFFFFFFF MUL NOT AND SWAP1 DUP4 PUSH20 0xFFFFFFFFFFFFFFFFFFFFFFFFFFFFFFFFFFFFFFFF AND MUL OR SWAP1 SSTORE POP DUP4 DUP2 PUSH1 0x5 ADD DUP2 SWAP1 SSTORE POP PUSH2 0xC51 PUSH2 0xCE7 JUMP JUMPDEST DUP2 PUSH1 0x9 ADD SWAP1 DUP2 PUSH2 0xC61 SWAP2 SWAP1 PUSH2 0x2A68 JUMP JUMPDEST POP CALLVALUE DUP2 PUSH1 0x6 ADD DUP2 SWAP1 SSTORE POP PUSH1 0x0 DUP2 PUSH1 0x8 ADD PUSH1 0x0 PUSH2 0x100 EXP DUP2 SLOAD DUP2 PUSH1 0xFF MUL NOT AND SWAP1 DUP4 ISZERO ISZERO MUL OR SWAP1 SSTORE POP PUSH1 0x2 PUSH1 0x0 DUP2 SLOAD DUP1 SWAP3 SWAP2 SWAP1 PUSH2 0xC9B SWAP1 PUSH2 0x2FAC JUMP JUMPDEST SWAP2 SWAP1 POP SSTORE POP PUSH32 0x9D68939C1DDFEFFC79739BB966EDBFD496E6081F2BBB1A94EB7C1A42FCBB1DCF DUP2 PUSH1 0x9 ADD DUP7 CALLER PUSH1 0x40 MLOAD PUSH2 0xCD6 SWAP4 SWAP3 SWAP2 SWAP1 PUSH2 0x3087 JUMP JUMPDEST PUSH1 0x40 MLOAD DUP1 SWAP2 SUB SWAP1 LOG1 POP POP POP POP POP POP POP JUMP JUMPDEST PUSH1 0x60 PUSH1 0x0 PUSH1 0x2 SLOAD PUSH1 0x40 MLOAD PUSH1 0x20 ADD PUSH2 0xCFE SWAP2 SWAP1 PUSH2 0x21D7 JUMP JUMPDEST PUSH1 0x40 MLOAD PUSH1 0x20 DUP2 DUP4 SUB SUB DUP2 MSTORE SWAP1 PUSH1 0x40 MSTORE DUP1 MLOAD SWAP1 PUSH1 0x20 ADD KECCAK256 SWAP1 POP PUSH2 0xD1F DUP2 PUSH2 0x1BE7 JUMP JUMPDEST SWAP2 POP POP SWAP1 JUMP JUMPDEST PUSH1 0x60 PUSH1 0x1 DUP1 SLOAD DUP1 PUSH1 0x20 MUL PUSH1 0x20 ADD PUSH1 0x40 MLOAD SWAP1 DUP2 ADD PUSH1 0x40 MSTORE DUP1 SWAP3 SWAP2 SWAP1 DUP2 DUP2 MSTORE PUSH1 0x20 ADD PUSH1 0x0 SWAP1 JUMPDEST DUP3 DUP3 LT ISZERO PUSH2 0x10EC JUMPI DUP4 DUP3 SWAP1 PUSH1 0x0 MSTORE PUSH1 0x20 PUSH1 0x0 KECCAK256 SWAP1 PUSH1 0xA MUL ADD PUSH1 0x40 MLOAD DUP1 PUSH2 0x160 ADD PUSH1 0x40 MSTORE SWAP1 DUP2 PUSH1 0x0 DUP3 ADD DUP1 SLOAD PUSH2 0xD7D SWAP1 PUSH2 0x281F JUMP JUMPDEST DUP1 PUSH1 0x1F ADD PUSH1 0x20 DUP1 SWAP2 DIV MUL PUSH1 0x20 ADD PUSH1 0x40 MLOAD SWAP1 DUP2 ADD PUSH1 0x40 MSTORE DUP1 SWAP3 SWAP2 SWAP1 DUP2 DUP2 MSTORE PUSH1 0x20 ADD DUP3 DUP1 SLOAD PUSH2 0xDA9 SWAP1 PUSH2 0x281F JUMP JUMPDEST DUP1 ISZERO PUSH2 0xDF6 JUMPI DUP1 PUSH1 0x1F LT PUSH2 0xDCB JUMPI PUSH2 0x100 DUP1 DUP4 SLOAD DIV MUL DUP4 MSTORE SWAP2 PUSH1 0x20 ADD SWAP2 PUSH2 0xDF6 JUMP JUMPDEST DUP3 ADD SWAP2 SWAP1 PUSH1 0x0 MSTORE PUSH1 0x20 PUSH1 0x0 KECCAK256 SWAP1 JUMPDEST DUP2 SLOAD DUP2 MSTORE SWAP1 PUSH1 0x1 ADD SWAP1 PUSH1 0x20 ADD DUP1 DUP4 GT PUSH2 0xDD9 JUMPI DUP3 SWAP1 SUB PUSH1 0x1F AND DUP3 ADD SWAP2 JUMPDEST POP POP POP POP POP DUP2 MSTORE PUSH1 0x20 ADD PUSH1 0x1 DUP3 ADD DUP1 SLOAD DUP1 PUSH1 0x20 MUL PUSH1 0x20 ADD PUSH1 0x40 MLOAD SWAP1 DUP2 ADD PUSH1 0x40 MSTORE DUP1 SWAP3 SWAP2 SWAP1 DUP2 DUP2 MSTORE PUSH1 0x20 ADD PUSH1 0x0 SWAP1 JUMPDEST DUP3 DUP3 LT ISZERO PUSH2 0xED0 JUMPI DUP4 DUP3 SWAP1 PUSH1 0x0 MSTORE PUSH1 0x20 PUSH1 0x0 KECCAK256 ADD DUP1 SLOAD PUSH2 0xE43 SWAP1 PUSH2 0x281F JUMP JUMPDEST DUP1 PUSH1 0x1F ADD PUSH1 0x20 DUP1 SWAP2 DIV MUL PUSH1 0x20 ADD PUSH1 0x40 MLOAD SWAP1 DUP2 ADD PUSH1 0x40 MSTORE DUP1 SWAP3 SWAP2 SWAP1 DUP2 DUP2 MSTORE PUSH1 0x20 ADD DUP3 DUP1 SLOAD PUSH2 0xE6F SWAP1 PUSH2 0x281F JUMP JUMPDEST DUP1 ISZERO PUSH2 0xEBC JUMPI DUP1 PUSH1 0x1F LT PUSH2 0xE91 JUMPI PUSH2 0x100 DUP1 DUP4 SLOAD DIV MUL DUP4 MSTORE SWAP2 PUSH1 0x20 ADD SWAP2 PUSH2 0xEBC JUMP JUMPDEST DUP3 ADD SWAP2 SWAP1 PUSH1 0x0 MSTORE PUSH1 0x20 PUSH1 0x0 KECCAK256 SWAP1 JUMPDEST DUP2 SLOAD DUP2 MSTORE SWAP1 PUSH1 0x1 ADD SWAP1 PUSH1 0x20 ADD DUP1 DUP4 GT PUSH2 0xE9F JUMPI DUP3 SWAP1 SUB PUSH1 0x1F AND DUP3 ADD SWAP2 JUMPDEST POP POP POP POP POP DUP2 MSTORE PUSH1 0x20 ADD SWAP1 PUSH1 0x1 ADD SWAP1 PUSH2 0xE24 JUMP JUMPDEST POP POP POP POP DUP2 MSTORE PUSH1 0x20 ADD PUSH1 0x2 DUP3 ADD SLOAD DUP2 MSTORE PUSH1 0x20 ADD PUSH1 0x3 DUP3 ADD SLOAD DUP2 MSTORE PUSH1 0x20 ADD PUSH1 0x4 DUP3 ADD PUSH1 0x0 SWAP1 SLOAD SWAP1 PUSH2 0x100 EXP SWAP1 DIV PUSH1 0xFF AND ISZERO ISZERO ISZERO ISZERO DUP2 MSTORE PUSH1 0x20 ADD PUSH1 0x4 DUP3 ADD PUSH1 0x1 SWAP1 SLOAD SWAP1 PUSH2 0x100 EXP SWAP1 DIV PUSH20 0xFFFFFFFFFFFFFFFFFFFFFFFFFFFFFFFFFFFFFFFF AND PUSH20 0xFFFFFFFFFFFFFFFFFFFFFFFFFFFFFFFFFFFFFFFF AND PUSH20 0xFFFFFFFFFFFFFFFFFFFFFFFFFFFFFFFFFFFFFFFF AND DUP2 MSTORE PUSH1 0x20 ADD PUSH1 0x5 DUP3 ADD SLOAD DUP2 MSTORE PUSH1 0x20 ADD PUSH1 0x6 DUP3 ADD SLOAD DUP2 MSTORE PUSH1 0x20 ADD PUSH1 0x7 DUP3 ADD DUP1 SLOAD DUP1 PUSH1 0x20 MUL PUSH1 0x20 ADD PUSH1 0x40 MLOAD SWAP1 DUP2 ADD PUSH1 0x40 MSTORE DUP1 SWAP3 SWAP2 SWAP1 DUP2 DUP2 MSTORE PUSH1 0x20 ADD PUSH1 0x0 SWAP1 JUMPDEST DUP3 DUP3 LT ISZERO PUSH2 0x1028 JUMPI DUP4 DUP3 SWAP1 PUSH1 0x0 MSTORE PUSH1 0x20 PUSH1 0x0 KECCAK256 SWAP1 PUSH1 0x2 MUL ADD PUSH1 0x40 MLOAD DUP1 PUSH1 0x40 ADD PUSH1 0x40 MSTORE SWAP1 DUP2 PUSH1 0x0 DUP3 ADD PUSH1 0x0 SWAP1 SLOAD SWAP1 PUSH2 0x100 EXP SWAP1 DIV PUSH20 0xFFFFFFFFFFFFFFFFFFFFFFFFFFFFFFFFFFFFFFFF AND PUSH20 0xFFFFFFFFFFFFFFFFFFFFFFFFFFFFFFFFFFFFFFFF AND PUSH20 0xFFFFFFFFFFFFFFFFFFFFFFFFFFFFFFFFFFFFFFFF AND DUP2 MSTORE PUSH1 0x20 ADD PUSH1 0x1 DUP3 ADD SLOAD DUP2 MSTORE POP POP DUP2 MSTORE PUSH1 0x20 ADD SWAP1 PUSH1 0x1 ADD SWAP1 PUSH2 0xF96 JUMP JUMPDEST POP POP POP POP DUP2 MSTORE PUSH1 0x20 ADD PUSH1 0x8 DUP3 ADD PUSH1 0x0 SWAP1 SLOAD SWAP1 PUSH2 0x100 EXP SWAP1 DIV PUSH1 0xFF AND ISZERO ISZERO ISZERO ISZERO DUP2 MSTORE PUSH1 0x20 ADD PUSH1 0x9 DUP3 ADD DUP1 SLOAD PUSH2 0x105B SWAP1 PUSH2 0x281F JUMP JUMPDEST DUP1 PUSH1 0x1F ADD PUSH1 0x20 DUP1 SWAP2 DIV MUL PUSH1 0x20 ADD PUSH1 0x40 MLOAD SWAP1 DUP2 ADD PUSH1 0x40 MSTORE DUP1 SWAP3 SWAP2 SWAP1 DUP2 DUP2 MSTORE PUSH1 0x20 ADD DUP3 DUP1 SLOAD PUSH2 0x1087 SWAP1 PUSH2 0x281F JUMP JUMPDEST DUP1 ISZERO PUSH2 0x10D4 JUMPI DUP1 PUSH1 0x1F LT PUSH2 0x10A9 JUMPI PUSH2 0x100 DUP1 DUP4 SLOAD DIV MUL DUP4 MSTORE SWAP2 PUSH1 0x20 ADD SWAP2 PUSH2 0x10D4 JUMP JUMPDEST DUP3 ADD SWAP2 SWAP1 PUSH1 0x0 MSTORE PUSH1 0x20 PUSH1 0x0 KECCAK256 SWAP1 JUMPDEST DUP2 SLOAD DUP2 MSTORE SWAP1 PUSH1 0x1 ADD SWAP1 PUSH1 0x20 ADD DUP1 DUP4 GT PUSH2 0x10B7 JUMPI DUP3 SWAP1 SUB PUSH1 0x1F AND DUP3 ADD SWAP2 JUMPDEST POP POP POP POP POP DUP2 MSTORE POP POP DUP2 MSTORE PUSH1 0x20 ADD SWAP1 PUSH1 0x1 ADD SWAP1 PUSH2 0xD49 JUMP JUMPDEST POP POP POP POP SWAP1 POP SWAP1 JUMP JUMPDEST PUSH1 0x0 DUP1 PUSH2 0x1101 DUP4 PUSH2 0x19AA JUMP JUMPDEST SWAP1 POP PUSH32 0xFFFFFFFFFFFFFFFFFFFFFFFFFFFFFFFFFFFFFFFFFFFFFFFFFFFFFFFFFFFFFFFF DUP2 SUB PUSH2 0x1165 JUMPI PUSH1 0x40 MLOAD PUSH32 0x8C379A000000000000000000000000000000000000000000000000000000000 DUP2 MSTORE PUSH1 0x4 ADD PUSH2 0x115C SWAP1 PUSH2 0x2D74 JUMP JUMPDEST PUSH1 0x40 MLOAD DUP1 SWAP2 SUB SWAP1 REVERT JUMPDEST PUSH1 0x1 DUP2 DUP2 SLOAD DUP2 LT PUSH2 0x1179 JUMPI PUSH2 0x1178 PUSH2 0x2BA6 JUMP JUMPDEST JUMPDEST SWAP1 PUSH1 0x0 MSTORE PUSH1 0x20 PUSH1 0x0 KECCAK256 SWAP1 PUSH1 0xA MUL ADD PUSH1 0x4 ADD PUSH1 0x0 SWAP1 SLOAD SWAP1 PUSH2 0x100 EXP SWAP1 DIV PUSH1 0xFF AND ISZERO PUSH2 0x11D8 JUMPI PUSH1 0x40 MLOAD PUSH32 0x8C379A000000000000000000000000000000000000000000000000000000000 DUP2 MSTORE PUSH1 0x4 ADD PUSH2 0x11CF SWAP1 PUSH2 0x3111 JUMP JUMPDEST PUSH1 0x40 MLOAD DUP1 SWAP2 SUB SWAP1 REVERT JUMPDEST PUSH1 0x0 DUP2 SWAP1 POP CALLVALUE PUSH1 0x1 DUP3 DUP2 SLOAD DUP2 LT PUSH2 0x11F2 JUMPI PUSH2 0x11F1 PUSH2 0x2BA6 JUMP JUMPDEST JUMPDEST SWAP1 PUSH1 0x0 MSTORE PUSH1 0x20 PUSH1 0x0 KECCAK256 SWAP1 PUSH1 0xA MUL ADD PUSH1 0x3 ADD PUSH1 0x0 DUP3 DUP3 SLOAD PUSH2 0x1212 SWAP2 SWAP1 PUSH2 0x2E6C JUMP JUMPDEST SWAP3 POP POP DUP2 SWAP1 SSTORE POP PUSH32 0xF52C0B1F9D621AD58C98DF6134275AFB3FA547A9B691554606043810AC9F684A DUP5 CALLVALUE CALLER PUSH1 0x40 MLOAD PUSH2 0x124C SWAP4 SWAP3 SWAP2 SWAP1 PUSH2 0x3131 JUMP JUMPDEST PUSH1 0x40 MLOAD DUP1 SWAP2 SUB SWAP1 LOG1 PUSH1 0x0 DUP1 JUMPDEST PUSH1 0x1 DUP4 DUP2 SLOAD DUP2 LT PUSH2 0x126C JUMPI PUSH2 0x126B PUSH2 0x2BA6 JUMP JUMPDEST JUMPDEST SWAP1 PUSH1 0x0 MSTORE PUSH1 0x20 PUSH1 0x0 KECCAK256 SWAP1 PUSH1 0xA MUL ADD PUSH1 0x7 ADD DUP1 SLOAD SWAP1 POP DUP2 LT ISZERO PUSH2 0x1398 JUMPI CALLER PUSH20 0xFFFFFFFFFFFFFFFFFFFFFFFFFFFFFFFFFFFFFFFF AND PUSH1 0x1 DUP5 DUP2 SLOAD DUP2 LT PUSH2 0x12B3 JUMPI PUSH2 0x12B2 PUSH2 0x2BA6 JUMP JUMPDEST JUMPDEST SWAP1 PUSH1 0x0 MSTORE PUSH1 0x20 PUSH1 0x0 KECCAK256 SWAP1 PUSH1 0xA MUL ADD PUSH1 0x7 ADD DUP3 DUP2 SLOAD DUP2 LT PUSH2 0x12D6 JUMPI PUSH2 0x12D5 PUSH2 0x2BA6 JUMP JUMPDEST JUMPDEST SWAP1 PUSH1 0x0 MSTORE PUSH1 0x20 PUSH1 0x0 KECCAK256 SWAP1 PUSH1 0x2 MUL ADD PUSH1 0x0 ADD PUSH1 0x0 SWAP1 SLOAD SWAP1 PUSH2 0x100 EXP SWAP1 DIV PUSH20 0xFFFFFFFFFFFFFFFFFFFFFFFFFFFFFFFFFFFFFFFF AND PUSH20 0xFFFFFFFFFFFFFFFFFFFFFFFFFFFFFFFFFFFFFFFF AND SUB PUSH2 0x138B JUMPI CALLVALUE PUSH1 0x1 DUP5 DUP2 SLOAD DUP2 LT PUSH2 0x1338 JUMPI PUSH2 0x1337 PUSH2 0x2BA6 JUMP JUMPDEST JUMPDEST SWAP1 PUSH1 0x0 MSTORE PUSH1 0x20 PUSH1 0x0 KECCAK256 SWAP1 PUSH1 0xA MUL ADD PUSH1 0x7 ADD DUP3 DUP2 SLOAD DUP2 LT PUSH2 0x135B JUMPI PUSH2 0x135A PUSH2 0x2BA6 JUMP JUMPDEST JUMPDEST SWAP1 PUSH1 0x0 MSTORE PUSH1 0x20 PUSH1 0x0 KECCAK256 SWAP1 PUSH1 0x2 MUL ADD PUSH1 0x1 ADD PUSH1 0x0 DUP3 DUP3 SLOAD PUSH2 0x137B SWAP2 SWAP1 PUSH2 0x2E6C JUMP JUMPDEST SWAP3 POP POP DUP2 SWAP1 SSTORE POP PUSH1 0x1 SWAP2 POP PUSH2 0x1398 JUMP JUMPDEST DUP1 DUP1 PUSH1 0x1 ADD SWAP2 POP POP PUSH2 0x1258 JUMP JUMPDEST POP DUP1 PUSH2 0x146B JUMPI PUSH1 0x1 DUP3 DUP2 SLOAD DUP2 LT PUSH2 0x13B2 JUMPI PUSH2 0x13B1 PUSH2 0x2BA6 JUMP JUMPDEST JUMPDEST SWAP1 PUSH1 0x0 MSTORE PUSH1 0x20 PUSH1 0x0 KECCAK256 SWAP1 PUSH1 0xA MUL ADD PUSH1 0x7 ADD PUSH1 0x40 MLOAD DUP1 PUSH1 0x40 ADD PUSH1 0x40 MSTORE DUP1 CALLER PUSH20 0xFFFFFFFFFFFFFFFFFFFFFFFFFFFFFFFFFFFFFFFF AND DUP2 MSTORE PUSH1 0x20 ADD CALLVALUE DUP2 MSTORE POP SWAP1 DUP1 PUSH1 0x1 DUP2 SLOAD ADD DUP1 DUP3 SSTORE DUP1 SWAP2 POP POP PUSH1 0x1 SWAP1 SUB SWAP1 PUSH1 0x0 MSTORE PUSH1 0x20 PUSH1 0x0 KECCAK256 SWAP1 PUSH1 0x2 MUL ADD PUSH1 0x0 SWAP1 SWAP2 SWAP1 SWAP2 SWAP1 SWAP2 POP PUSH1 0x0 DUP3 ADD MLOAD DUP2 PUSH1 0x0 ADD PUSH1 0x0 PUSH2 0x100 EXP DUP2 SLOAD DUP2 PUSH20 0xFFFFFFFFFFFFFFFFFFFFFFFFFFFFFFFFFFFFFFFF MUL NOT AND SWAP1 DUP4 PUSH20 0xFFFFFFFFFFFFFFFFFFFFFFFFFFFFFFFFFFFFFFFF AND MUL OR SWAP1 SSTORE POP PUSH1 0x20 DUP3 ADD MLOAD DUP2 PUSH1 0x1 ADD SSTORE POP POP JUMPDEST PUSH1 0x1 DUP3 DUP2 SLOAD DUP2 LT PUSH2 0x147F JUMPI PUSH2 0x147E PUSH2 0x2BA6 JUMP JUMPDEST JUMPDEST SWAP1 PUSH1 0x0 MSTORE PUSH1 0x20 PUSH1 0x0 KECCAK256 SWAP1 PUSH1 0xA MUL ADD PUSH1 0x2 ADD SLOAD PUSH1 0x1 DUP4 DUP2 SLOAD DUP2 LT PUSH2 0x14A5 JUMPI PUSH2 0x14A4 PUSH2 0x2BA6 JUMP JUMPDEST JUMPDEST SWAP1 PUSH1 0x0 MSTORE PUSH1 0x20 PUSH1 0x0 KECCAK256 SWAP1 PUSH1 0xA MUL ADD PUSH1 0x3 ADD SLOAD SUB PUSH2 0x14FA JUMPI PUSH1 0x1 DUP1 DUP4 DUP2 SLOAD DUP2 LT PUSH2 0x14D1 JUMPI PUSH2 0x14D0 PUSH2 0x2BA6 JUMP JUMPDEST JUMPDEST SWAP1 PUSH1 0x0 MSTORE PUSH1 0x20 PUSH1 0x0 KECCAK256 SWAP1 PUSH1 0xA MUL ADD PUSH1 0x4 ADD PUSH1 0x0 PUSH2 0x100 EXP DUP2 SLOAD DUP2 PUSH1 0xFF MUL NOT AND SWAP1 DUP4 ISZERO ISZERO MUL OR SWAP1 SSTORE POP JUMPDEST PUSH1 0x0 SWAP4 POP POP POP POP SWAP2 SWAP1 POP JUMP JUMPDEST PUSH1 0x0 PUSH2 0x1511 DUP3 PUSH2 0x19AA JUMP JUMPDEST SWAP1 POP PUSH32 0xFFFFFFFFFFFFFFFFFFFFFFFFFFFFFFFFFFFFFFFFFFFFFFFFFFFFFFFFFFFFFFFF DUP2 SUB PUSH2 0x1575 JUMPI PUSH1 0x40 MLOAD PUSH32 0x8C379A000000000000000000000000000000000000000000000000000000000 DUP2 MSTORE PUSH1 0x4 ADD PUSH2 0x156C SWAP1 PUSH2 0x2B86 JUMP JUMPDEST PUSH1 0x40 MLOAD DUP1 SWAP2 SUB SWAP1 REVERT JUMPDEST PUSH1 0x1 DUP2 DUP2 SLOAD DUP2 LT PUSH2 0x1589 JUMPI PUSH2 0x1588 PUSH2 0x2BA6 JUMP JUMPDEST JUMPDEST SWAP1 PUSH1 0x0 MSTORE PUSH1 0x20 PUSH1 0x0 KECCAK256 SWAP1 PUSH1 0xA MUL ADD PUSH1 0x4 ADD PUSH1 0x1 SWAP1 SLOAD SWAP1 PUSH2 0x100 EXP SWAP1 DIV PUSH20 0xFFFFFFFFFFFFFFFFFFFFFFFFFFFFFFFFFFFFFFFF AND PUSH20 0xFFFFFFFFFFFFFFFFFFFFFFFFFFFFFFFFFFFFFFFF AND CALLER PUSH20 0xFFFFFFFFFFFFFFFFFFFFFFFFFFFFFFFFFFFFFFFF AND EQ PUSH2 0x1628 JUMPI PUSH1 0x40 MLOAD PUSH32 0x8C379A000000000000000000000000000000000000000000000000000000000 DUP2 MSTORE PUSH1 0x4 ADD PUSH2 0x161F SWAP1 PUSH2 0x31BB JUMP JUMPDEST PUSH1 0x40 MLOAD DUP1 SWAP2 SUB SWAP1 REVERT JUMPDEST PUSH1 0x0 ISZERO ISZERO PUSH1 0x1 DUP3 DUP2 SLOAD DUP2 LT PUSH2 0x1640 JUMPI PUSH2 0x163F PUSH2 0x2BA6 JUMP JUMPDEST JUMPDEST SWAP1 PUSH1 0x0 MSTORE PUSH1 0x20 PUSH1 0x0 KECCAK256 SWAP1 PUSH1 0xA MUL ADD PUSH1 0x4 ADD PUSH1 0x0 SWAP1 SLOAD SWAP1 PUSH2 0x100 EXP SWAP1 DIV PUSH1 0xFF AND ISZERO ISZERO EQ PUSH2 0x16A1 JUMPI PUSH1 0x40 MLOAD PUSH32 0x8C379A000000000000000000000000000000000000000000000000000000000 DUP2 MSTORE PUSH1 0x4 ADD PUSH2 0x1698 SWAP1 PUSH2 0x3227 JUMP JUMPDEST PUSH1 0x40 MLOAD DUP1 SWAP2 SUB SWAP1 REVERT JUMPDEST PUSH1 0x0 DUP2 SWAP1 POP PUSH1 0x0 JUMPDEST PUSH1 0x1 DUP3 DUP2 SLOAD DUP2 LT PUSH2 0x16BD JUMPI PUSH2 0x16BC PUSH2 0x2BA6 JUMP JUMPDEST JUMPDEST SWAP1 PUSH1 0x0 MSTORE PUSH1 0x20 PUSH1 0x0 KECCAK256 SWAP1 PUSH1 0xA MUL ADD PUSH1 0x7 ADD DUP1 SLOAD SWAP1 POP DUP2 LT ISZERO PUSH2 0x17DD JUMPI PUSH1 0x1 DUP3 DUP2 SLOAD DUP2 LT PUSH2 0x16ED JUMPI PUSH2 0x16EC PUSH2 0x2BA6 JUMP JUMPDEST JUMPDEST SWAP1 PUSH1 0x0 MSTORE PUSH1 0x20 PUSH1 0x0 KECCAK256 SWAP1 PUSH1 0xA MUL ADD PUSH1 0x7 ADD DUP2 DUP2 SLOAD DUP2 LT PUSH2 0x1710 JUMPI PUSH2 0x170F PUSH2 0x2BA6 JUMP JUMPDEST JUMPDEST SWAP1 PUSH1 0x0 MSTORE PUSH1 0x20 PUSH1 0x0 KECCAK256 SWAP1 PUSH1 0x2 MUL ADD PUSH1 0x0 ADD PUSH1 0x0 SWAP1 SLOAD SWAP1 PUSH2 0x100 EXP SWAP1 DIV PUSH20 0xFFFFFFFFFFFFFFFFFFFFFFFFFFFFFFFFFFFFFFFF AND PUSH20 0xFFFFFFFFFFFFFFFFFFFFFFFFFFFFFFFFFFFFFFFF AND PUSH2 0x8FC PUSH1 0x1 DUP5 DUP2 SLOAD DUP2 LT PUSH2 0x176F JUMPI PUSH2 0x176E PUSH2 0x2BA6 JUMP JUMPDEST JUMPDEST SWAP1 PUSH1 0x0 MSTORE PUSH1 0x20 PUSH1 0x0 KECCAK256 SWAP1 PUSH1 0xA MUL ADD PUSH1 0x7 ADD DUP4 DUP2 SLOAD DUP2 LT PUSH2 0x1792 JUMPI PUSH2 0x1791 PUSH2 0x2BA6 JUMP JUMPDEST JUMPDEST SWAP1 PUSH1 0x0 MSTORE PUSH1 0x20 PUSH1 0x0 KECCAK256 SWAP1 PUSH1 0x2 MUL ADD PUSH1 0x1 ADD SLOAD SWAP1 DUP2 ISZERO MUL SWAP1 PUSH1 0x40 MLOAD PUSH1 0x0 PUSH1 0x40 MLOAD DUP1 DUP4 SUB DUP2 DUP6 DUP9 DUP9 CALL SWAP4 POP POP POP POP ISZERO DUP1 ISZERO PUSH2 0x17CF JUMPI RETURNDATASIZE PUSH1 0x0 DUP1 RETURNDATACOPY RETURNDATASIZE PUSH1 0x0 REVERT JUMPDEST POP DUP1 DUP1 PUSH1 0x1 ADD SWAP2 POP POP PUSH2 0x16A9 JUMP JUMPDEST POP PUSH1 0x1 DUP2 DUP2 SLOAD DUP2 LT PUSH2 0x17F2 JUMPI PUSH2 0x17F1 PUSH2 0x2BA6 JUMP JUMPDEST JUMPDEST SWAP1 PUSH1 0x0 MSTORE PUSH1 0x20 PUSH1 0x0 KECCAK256 SWAP1 PUSH1 0xA MUL ADD PUSH1 0x4 ADD PUSH1 0x1 SWAP1 SLOAD SWAP1 PUSH2 0x100 EXP SWAP1 DIV PUSH20 0xFFFFFFFFFFFFFFFFFFFFFFFFFFFFFFFFFFFFFFFF AND PUSH20 0xFFFFFFFFFFFFFFFFFFFFFFFFFFFFFFFFFFFFFFFF AND PUSH2 0x8FC PUSH1 0x1 DUP4 DUP2 SLOAD DUP2 LT PUSH2 0x1851 JUMPI PUSH2 0x1850 PUSH2 0x2BA6 JUMP JUMPDEST JUMPDEST SWAP1 PUSH1 0x0 MSTORE PUSH1 0x20 PUSH1 0x0 KECCAK256 SWAP1 PUSH1 0xA MUL ADD PUSH1 0x6 ADD SLOAD SWAP1 DUP2 ISZERO MUL SWAP1 PUSH1 0x40 MLOAD PUSH1 0x0 PUSH1 0x40 MLOAD DUP1 DUP4 SUB DUP2 DUP6 DUP9 DUP9 CALL SWAP4 POP POP POP POP ISZERO DUP1 ISZERO PUSH2 0x188E JUMPI RETURNDATASIZE PUSH1 0x0 DUP1 RETURNDATACOPY RETURNDATASIZE PUSH1 0x0 REVERT JUMPDEST POP PUSH32 0xECA2515ADBF9D70B2375FC2DFEFF982A4D45E44E8531FBB8D462D33FE07ED2FF DUP4 PUSH1 0x1 DUP4 DUP2 SLOAD DUP2 LT PUSH2 0x18C5 JUMPI PUSH2 0x18C4 PUSH2 0x2BA6 JUMP JUMPDEST JUMPDEST SWAP1 PUSH1 0x0 MSTORE PUSH1 0x20 PUSH1 0x0 KECCAK256 SWAP1 PUSH1 0xA MUL ADD PUSH1 0x6 ADD SLOAD PUSH1 0x1 DUP5 DUP2 SLOAD DUP2 LT PUSH2 0x18EB JUMPI PUSH2 0x18EA PUSH2 0x2BA6 JUMP JUMPDEST JUMPDEST SWAP1 PUSH1 0x0 MSTORE PUSH1 0x20 PUSH1 0x0 KECCAK256 SWAP1 PUSH1 0xA MUL ADD PUSH1 0x3 ADD SLOAD PUSH2 0x1907 SWAP2 SWAP1 PUSH2 0x2E6C JUMP JUMPDEST PUSH1 0x40 MLOAD PUSH2 0x1915 SWAP3 SWAP2 SWAP1 PUSH2 0x2CF8 JUMP JUMPDEST PUSH1 0x40 MLOAD DUP1 SWAP2 SUB SWAP1 LOG1 PUSH1 0x0 PUSH1 0x1 DUP3 DUP2 SLOAD DUP2 LT PUSH2 0x1933 JUMPI PUSH2 0x1932 PUSH2 0x2BA6 JUMP JUMPDEST JUMPDEST SWAP1 PUSH1 0x0 MSTORE PUSH1 0x20 PUSH1 0x0 KECCAK256 SWAP1 PUSH1 0xA MUL ADD PUSH1 0x3 ADD DUP2 SWAP1 SSTORE POP POP POP POP JUMP JUMPDEST PUSH1 0x0 DUP1 PUSH1 0x0 SWAP1 POP JUMPDEST DUP4 MLOAD DUP2 LT ISZERO PUSH2 0x199E JUMPI PUSH2 0x1982 DUP5 DUP3 DUP2 MLOAD DUP2 LT PUSH2 0x1974 JUMPI PUSH2 0x1973 PUSH2 0x2BA6 JUMP JUMPDEST JUMPDEST PUSH1 0x20 MUL PUSH1 0x20 ADD ADD MLOAD DUP5 PUSH2 0x1DE1 JUMP JUMPDEST ISZERO PUSH2 0x1991 JUMPI PUSH1 0x1 SWAP2 POP POP PUSH2 0x19A4 JUMP JUMPDEST DUP1 DUP1 PUSH1 0x1 ADD SWAP2 POP POP PUSH2 0x1955 JUMP JUMPDEST POP PUSH1 0x0 SWAP1 POP JUMPDEST SWAP3 SWAP2 POP POP JUMP JUMPDEST PUSH1 0x0 DUP1 PUSH1 0x0 SWAP1 POP JUMPDEST PUSH1 0x1 DUP1 SLOAD SWAP1 POP DUP2 LT ISZERO PUSH2 0x1A91 JUMPI PUSH2 0x1A76 DUP4 PUSH1 0x1 DUP4 DUP2 SLOAD DUP2 LT PUSH2 0x19D7 JUMPI PUSH2 0x19D6 PUSH2 0x2BA6 JUMP JUMPDEST JUMPDEST SWAP1 PUSH1 0x0 MSTORE PUSH1 0x20 PUSH1 0x0 KECCAK256 SWAP1 PUSH1 0xA MUL ADD PUSH1 0x9 ADD DUP1 SLOAD PUSH2 0x19F3 SWAP1 PUSH2 0x281F JUMP JUMPDEST DUP1 PUSH1 0x1F ADD PUSH1 0x20 DUP1 SWAP2 DIV MUL PUSH1 0x20 ADD PUSH1 0x40 MLOAD SWAP1 DUP2 ADD PUSH1 0x40 MSTORE DUP1 SWAP3 SWAP2 SWAP1 DUP2 DUP2 MSTORE PUSH1 0x20 ADD DUP3 DUP1 SLOAD PUSH2 0x1A1F SWAP1 PUSH2 0x281F JUMP JUMPDEST DUP1 ISZERO PUSH2 0x1A6C JUMPI DUP1 PUSH1 0x1F LT PUSH2 0x1A41 JUMPI PUSH2 0x100 DUP1 DUP4 SLOAD DIV MUL DUP4 MSTORE SWAP2 PUSH1 0x20 ADD SWAP2 PUSH2 0x1A6C JUMP JUMPDEST DUP3 ADD SWAP2 SWAP1 PUSH1 0x0 MSTORE PUSH1 0x20 PUSH1 0x0 KECCAK256 SWAP1 JUMPDEST DUP2 SLOAD DUP2 MSTORE SWAP1 PUSH1 0x1 ADD SWAP1 PUSH1 0x20 ADD DUP1 DUP4 GT PUSH2 0x1A4F JUMPI DUP3 SWAP1 SUB PUSH1 0x1F AND DUP3 ADD SWAP2 JUMPDEST POP POP POP POP POP PUSH2 0x1DE1 JUMP JUMPDEST ISZERO PUSH2 0x1A84 JUMPI DUP1 SWAP2 POP POP PUSH2 0x1AB6 JUMP JUMPDEST DUP1 DUP1 PUSH1 0x1 ADD SWAP2 POP POP PUSH2 0x19B2 JUMP JUMPDEST POP PUSH32 0xFFFFFFFFFFFFFFFFFFFFFFFFFFFFFFFFFFFFFFFFFFFFFFFFFFFFFFFFFFFFFFFF SWAP1 POP JUMPDEST SWAP2 SWAP1 POP JUMP JUMPDEST PUSH1 0x0 DUP1 PUSH1 0x0 SWAP1 POP JUMPDEST DUP3 MLOAD DUP2 LT ISZERO PUSH2 0x1BDC JUMPI PUSH2 0x1BC1 PUSH1 0x0 DUP1 SLOAD DUP1 PUSH1 0x20 MUL PUSH1 0x20 ADD PUSH1 0x40 MLOAD SWAP1 DUP2 ADD PUSH1 0x40 MSTORE DUP1 SWAP3 SWAP2 SWAP1 DUP2 DUP2 MSTORE PUSH1 0x20 ADD PUSH1 0x0 SWAP1 JUMPDEST DUP3 DUP3 LT ISZERO PUSH2 0x1B9D JUMPI DUP4 DUP3 SWAP1 PUSH1 0x0 MSTORE PUSH1 0x20 PUSH1 0x0 KECCAK256 ADD DUP1 SLOAD PUSH2 0x1B10 SWAP1 PUSH2 0x281F JUMP JUMPDEST DUP1 PUSH1 0x1F ADD PUSH1 0x20 DUP1 SWAP2 DIV MUL PUSH1 0x20 ADD PUSH1 0x40 MLOAD SWAP1 DUP2 ADD PUSH1 0x40 MSTORE DUP1 SWAP3 SWAP2 SWAP1 DUP2 DUP2 MSTORE PUSH1 0x20 ADD DUP3 DUP1 SLOAD PUSH2 0x1B3C SWAP1 PUSH2 0x281F JUMP JUMPDEST DUP1 ISZERO PUSH2 0x1B89 JUMPI DUP1 PUSH1 0x1F LT PUSH2 0x1B5E JUMPI PUSH2 0x100 DUP1 DUP4 SLOAD DIV MUL DUP4 MSTORE SWAP2 PUSH1 0x20 ADD SWAP2 PUSH2 0x1B89 JUMP JUMPDEST DUP3 ADD SWAP2 SWAP1 PUSH1 0x0 MSTORE PUSH1 0x20 PUSH1 0x0 KECCAK256 SWAP1 JUMPDEST DUP2 SLOAD DUP2 MSTORE SWAP1 PUSH1 0x1 ADD SWAP1 PUSH1 0x20 ADD DUP1 DUP4 GT PUSH2 0x1B6C JUMPI DUP3 SWAP1 SUB PUSH1 0x1F AND DUP3 ADD SWAP2 JUMPDEST POP POP POP POP POP DUP2 MSTORE PUSH1 0x20 ADD SWAP1 PUSH1 0x1 ADD SWAP1 PUSH2 0x1AF1 JUMP JUMPDEST POP POP POP POP DUP5 DUP4 DUP2 MLOAD DUP2 LT PUSH2 0x1BB4 JUMPI PUSH2 0x1BB3 PUSH2 0x2BA6 JUMP JUMPDEST JUMPDEST PUSH1 0x20 MUL PUSH1 0x20 ADD ADD MLOAD PUSH2 0x194D JUMP JUMPDEST PUSH2 0x1BCF JUMPI PUSH1 0x0 SWAP2 POP POP PUSH2 0x1BE2 JUMP JUMPDEST DUP1 DUP1 PUSH1 0x1 ADD SWAP2 POP POP PUSH2 0x1AC3 JUMP JUMPDEST POP PUSH1 0x1 SWAP1 POP JUMPDEST SWAP2 SWAP1 POP JUMP JUMPDEST PUSH1 0x60 PUSH1 0x0 PUSH1 0x40 MLOAD DUP1 PUSH1 0x40 ADD PUSH1 0x40 MSTORE DUP1 PUSH1 0x10 DUP2 MSTORE PUSH1 0x20 ADD PUSH32 0x3031323334353637383961626364656600000000000000000000000000000000 DUP2 MSTORE POP SWAP1 POP PUSH1 0x0 PUSH1 0x40 PUSH8 0xFFFFFFFFFFFFFFFF DUP2 GT ISZERO PUSH2 0x1C40 JUMPI PUSH2 0x1C3F PUSH2 0x1EE7 JUMP JUMPDEST JUMPDEST PUSH1 0x40 MLOAD SWAP1 DUP1 DUP3 MSTORE DUP1 PUSH1 0x1F ADD PUSH1 0x1F NOT AND PUSH1 0x20 ADD DUP3 ADD PUSH1 0x40 MSTORE DUP1 ISZERO PUSH2 0x1C72 JUMPI DUP2 PUSH1 0x20 ADD PUSH1 0x1 DUP3 MUL DUP1 CALLDATASIZE DUP4 CALLDATACOPY DUP1 DUP3 ADD SWAP2 POP POP SWAP1 POP JUMPDEST POP SWAP1 POP PUSH1 0x0 JUMPDEST PUSH1 0x20 DUP2 LT ISZERO PUSH2 0x1DD6 JUMPI DUP3 PUSH1 0x4 DUP7 DUP4 PUSH1 0x20 DUP2 LT PUSH2 0x1C97 JUMPI PUSH2 0x1C96 PUSH2 0x2BA6 JUMP JUMPDEST JUMPDEST BYTE PUSH1 0xF8 SHL PUSH31 0xFFFFFFFFFFFFFFFFFFFFFFFFFFFFFFFFFFFFFFFFFFFFFFFFFFFFFFFFFFFFFF NOT AND SWAP1 SHR PUSH1 0xF8 SHR PUSH1 0xFF AND DUP2 MLOAD DUP2 LT PUSH2 0x1CD6 JUMPI PUSH2 0x1CD5 PUSH2 0x2BA6 JUMP JUMPDEST JUMPDEST PUSH1 0x20 ADD ADD MLOAD PUSH1 0xF8 SHR PUSH1 0xF8 SHL DUP3 PUSH1 0x2 DUP4 PUSH2 0x1CEF SWAP2 SWAP1 PUSH2 0x2C04 JUMP JUMPDEST DUP2 MLOAD DUP2 LT PUSH2 0x1D00 JUMPI PUSH2 0x1CFF PUSH2 0x2BA6 JUMP JUMPDEST JUMPDEST PUSH1 0x20 ADD ADD SWAP1 PUSH31 0xFFFFFFFFFFFFFFFFFFFFFFFFFFFFFFFFFFFFFFFFFFFFFFFFFFFFFFFFFFFFFF NOT AND SWAP1 DUP2 PUSH1 0x0 BYTE SWAP1 MSTORE8 POP DUP3 PUSH1 0xF PUSH1 0xF8 SHL DUP7 DUP4 PUSH1 0x20 DUP2 LT PUSH2 0x1D48 JUMPI PUSH2 0x1D47 PUSH2 0x2BA6 JUMP JUMPDEST JUMPDEST BYTE PUSH1 0xF8 SHL AND PUSH1 0xF8 SHR PUSH1 0xFF AND DUP2 MLOAD DUP2 LT PUSH2 0x1D64 JUMPI PUSH2 0x1D63 PUSH2 0x2BA6 JUMP JUMPDEST JUMPDEST PUSH1 0x20 ADD ADD MLOAD PUSH1 0xF8 SHR PUSH1 0xF8 SHL DUP3 PUSH1 0x1 PUSH1 0x2 DUP5 PUSH2 0x1D7F SWAP2 SWAP1 PUSH2 0x2C04 JUMP JUMPDEST PUSH2 0x1D89 SWAP2 SWAP1 PUSH2 0x2E6C JUMP JUMPDEST DUP2 MLOAD DUP2 LT PUSH2 0x1D9A JUMPI PUSH2 0x1D99 PUSH2 0x2BA6 JUMP JUMPDEST JUMPDEST PUSH1 0x20 ADD ADD SWAP1 PUSH31 0xFFFFFFFFFFFFFFFFFFFFFFFFFFFFFFFFFFFFFFFFFFFFFFFFFFFFFFFFFFFFFF NOT AND SWAP1 DUP2 PUSH1 0x0 BYTE SWAP1 MSTORE8 POP DUP1 DUP1 PUSH1 0x1 ADD SWAP2 POP POP PUSH2 0x1C78 JUMP JUMPDEST POP DUP1 SWAP3 POP POP POP SWAP2 SWAP1 POP JUMP JUMPDEST PUSH1 0x0 DUP1 DUP4 SWAP1 POP PUSH1 0x0 DUP4 SWAP1 POP DUP1 MLOAD DUP3 MLOAD EQ PUSH2 0x1E00 JUMPI PUSH1 0x0 SWAP3 POP POP POP PUSH2 0x1EB2 JUMP JUMPDEST PUSH1 0x0 JUMPDEST DUP3 MLOAD DUP2 LT ISZERO PUSH2 0x1EAA JUMPI DUP2 DUP2 DUP2 MLOAD DUP2 LT PUSH2 0x1E1F JUMPI PUSH2 0x1E1E PUSH2 0x2BA6 JUMP JUMPDEST JUMPDEST PUSH1 0x20 ADD ADD MLOAD PUSH1 0xF8 SHR PUSH1 0xF8 SHL PUSH31 0xFFFFFFFFFFFFFFFFFFFFFFFFFFFFFFFFFFFFFFFFFFFFFFFFFFFFFFFFFFFFFF NOT AND DUP4 DUP3 DUP2 MLOAD DUP2 LT PUSH2 0x1E5F JUMPI PUSH2 0x1E5E PUSH2 0x2BA6 JUMP JUMPDEST JUMPDEST PUSH1 0x20 ADD ADD MLOAD PUSH1 0xF8 SHR PUSH1 0xF8 SHL PUSH31 0xFFFFFFFFFFFFFFFFFFFFFFFFFFFFFFFFFFFFFFFFFFFFFFFFFFFFFFFFFFFFFF NOT AND EQ PUSH2 0x1E9D JUMPI PUSH1 0x0 SWAP4 POP POP POP POP PUSH2 0x1EB2 JUMP JUMPDEST DUP1 DUP1 PUSH1 0x1 ADD SWAP2 POP POP PUSH2 0x1E03 JUMP JUMPDEST POP PUSH1 0x1 SWAP3 POP POP POP JUMPDEST SWAP3 SWAP2 POP POP JUMP JUMPDEST PUSH1 0x0 PUSH1 0x40 MLOAD SWAP1 POP SWAP1 JUMP JUMPDEST PUSH1 0x0 DUP1 REVERT JUMPDEST PUSH1 0x0 DUP1 REVERT JUMPDEST PUSH1 0x0 DUP1 REVERT JUMPDEST PUSH1 0x0 DUP1 REVERT JUMPDEST PUSH1 0x0 PUSH1 0x1F NOT PUSH1 0x1F DUP4 ADD AND SWAP1 POP SWAP2 SWAP1 POP JUMP JUMPDEST PUSH32 0x4E487B7100000000000000000000000000000000000000000000000000000000 PUSH1 0x0 MSTORE PUSH1 0x41 PUSH1 0x4 MSTORE PUSH1 0x24 PUSH1 0x0 REVERT JUMPDEST PUSH2 0x1F1F DUP3 PUSH2 0x1ED6 JUMP JUMPDEST DUP2 ADD DUP2 DUP2 LT PUSH8 0xFFFFFFFFFFFFFFFF DUP3 GT OR ISZERO PUSH2 0x1F3E JUMPI PUSH2 0x1F3D PUSH2 0x1EE7 JUMP JUMPDEST JUMPDEST DUP1 PUSH1 0x40 MSTORE POP POP POP JUMP JUMPDEST PUSH1 0x0 PUSH2 0x1F51 PUSH2 0x1EB8 JUMP JUMPDEST SWAP1 POP PUSH2 0x1F5D DUP3 DUP3 PUSH2 0x1F16 JUMP JUMPDEST SWAP2 SWAP1 POP JUMP JUMPDEST PUSH1 0x0 PUSH8 0xFFFFFFFFFFFFFFFF DUP3 GT ISZERO PUSH2 0x1F7D JUMPI PUSH2 0x1F7C PUSH2 0x1EE7 JUMP JUMPDEST JUMPDEST PUSH2 0x1F86 DUP3 PUSH2 0x1ED6 JUMP JUMPDEST SWAP1 POP PUSH1 0x20 DUP2 ADD SWAP1 POP SWAP2 SWAP1 POP JUMP JUMPDEST DUP3 DUP2 DUP4 CALLDATACOPY PUSH1 0x0 DUP4 DUP4 ADD MSTORE POP POP POP JUMP JUMPDEST PUSH1 0x0 PUSH2 0x1FB5 PUSH2 0x1FB0 DUP5 PUSH2 0x1F62 JUMP JUMPDEST PUSH2 0x1F47 JUMP JUMPDEST SWAP1 POP DUP3 DUP2 MSTORE PUSH1 0x20 DUP2 ADD DUP5 DUP5 DUP5 ADD GT ISZERO PUSH2 0x1FD1 JUMPI PUSH2 0x1FD0 PUSH2 0x1ED1 JUMP JUMPDEST JUMPDEST PUSH2 0x1FDC DUP5 DUP3 DUP6 PUSH2 0x1F93 JUMP JUMPDEST POP SWAP4 SWAP3 POP POP POP JUMP JUMPDEST PUSH1 0x0 DUP3 PUSH1 0x1F DUP4 ADD SLT PUSH2 0x1FF9 JUMPI PUSH2 0x1FF8 PUSH2 0x1ECC JUMP JUMPDEST JUMPDEST DUP2 CALLDATALOAD PUSH2 0x2009 DUP5 DUP3 PUSH1 0x20 DUP7 ADD PUSH2 0x1FA2 JUMP JUMPDEST SWAP2 POP POP SWAP3 SWAP2 POP POP JUMP JUMPDEST PUSH1 0x0 PUSH1 0x20 DUP3 DUP5 SUB SLT ISZERO PUSH2 0x2028 JUMPI PUSH2 0x2027 PUSH2 0x1EC2 JUMP JUMPDEST JUMPDEST PUSH1 0x0 DUP3 ADD CALLDATALOAD PUSH8 0xFFFFFFFFFFFFFFFF DUP2 GT ISZERO PUSH2 0x2046 JUMPI PUSH2 0x2045 PUSH2 0x1EC7 JUMP JUMPDEST JUMPDEST PUSH2 0x2052 DUP5 DUP3 DUP6 ADD PUSH2 0x1FE4 JUMP JUMPDEST SWAP2 POP POP SWAP3 SWAP2 POP POP JUMP JUMPDEST PUSH1 0x0 DUP2 MLOAD SWAP1 POP SWAP2 SWAP1 POP JUMP JUMPDEST PUSH1 0x0 DUP3 DUP3 MSTORE PUSH1 0x20 DUP3 ADD SWAP1 POP SWAP3 SWAP2 POP POP JUMP JUMPDEST PUSH1 0x0 DUP2 SWAP1 POP PUSH1 0x20 DUP3 ADD SWAP1 POP SWAP2 SWAP1 POP JUMP JUMPDEST PUSH1 0x0 DUP2 MLOAD SWAP1 POP SWAP2 SWAP1 POP JUMP JUMPDEST PUSH1 0x0 DUP3 DUP3 MSTORE PUSH1 0x20 DUP3 ADD SWAP1 POP SWAP3 SWAP2 POP POP JUMP JUMPDEST PUSH1 0x0 JUMPDEST DUP4 DUP2 LT ISZERO PUSH2 0x20C1 JUMPI DUP1 DUP3 ADD MLOAD DUP2 DUP5 ADD MSTORE PUSH1 0x20 DUP2 ADD SWAP1 POP PUSH2 0x20A6 JUMP JUMPDEST PUSH1 0x0 DUP5 DUP5 ADD MSTORE POP POP POP POP JUMP JUMPDEST PUSH1 0x0 PUSH2 0x20D8 DUP3 PUSH2 0x2087 JUMP JUMPDEST PUSH2 0x20E2 DUP2 DUP6 PUSH2 0x2092 JUMP JUMPDEST SWAP4 POP PUSH2 0x20F2 DUP2 DUP6 PUSH1 0x20 DUP7 ADD PUSH2 0x20A3 JUMP JUMPDEST PUSH2 0x20FB DUP2 PUSH2 0x1ED6 JUMP JUMPDEST DUP5 ADD SWAP2 POP POP SWAP3 SWAP2 POP POP JUMP JUMPDEST PUSH1 0x0 PUSH2 0x2112 DUP4 DUP4 PUSH2 0x20CD JUMP JUMPDEST SWAP1 POP SWAP3 SWAP2 POP POP JUMP JUMPDEST PUSH1 0x0 PUSH1 0x20 DUP3 ADD SWAP1 POP SWAP2 SWAP1 POP JUMP JUMPDEST PUSH1 0x0 PUSH2 0x2132 DUP3 PUSH2 0x205B JUMP JUMPDEST PUSH2 0x213C DUP2 DUP6 PUSH2 0x2066 JUMP JUMPDEST SWAP4 POP DUP4 PUSH1 0x20 DUP3 MUL DUP6 ADD PUSH2 0x214E DUP6 PUSH2 0x2077 JUMP JUMPDEST DUP1 PUSH1 0x0 JUMPDEST DUP6 DUP2 LT ISZERO PUSH2 0x218A JUMPI DUP5 DUP5 SUB DUP10 MSTORE DUP2 MLOAD PUSH2 0x216B DUP6 DUP3 PUSH2 0x2106 JUMP JUMPDEST SWAP5 POP PUSH2 0x2176 DUP4 PUSH2 0x211A JUMP JUMPDEST SWAP3 POP PUSH1 0x20 DUP11 ADD SWAP10 POP POP PUSH1 0x1 DUP2 ADD SWAP1 POP PUSH2 0x2152 JUMP JUMPDEST POP DUP3 SWAP8 POP DUP8 SWAP6 POP POP POP POP POP POP SWAP3 SWAP2 POP POP JUMP JUMPDEST PUSH1 0x0 PUSH1 0x20 DUP3 ADD SWAP1 POP DUP2 DUP2 SUB PUSH1 0x0 DUP4 ADD MSTORE PUSH2 0x21B6 DUP2 DUP5 PUSH2 0x2127 JUMP JUMPDEST SWAP1 POP SWAP3 SWAP2 POP POP JUMP JUMPDEST PUSH1 0x0 DUP2 SWAP1 POP SWAP2 SWAP1 POP JUMP JUMPDEST PUSH2 0x21D1 DUP2 PUSH2 0x21BE JUMP JUMPDEST DUP3 MSTORE POP POP JUMP JUMPDEST PUSH1 0x0 PUSH1 0x20 DUP3 ADD SWAP1 POP PUSH2 0x21EC PUSH1 0x0 DUP4 ADD DUP5 PUSH2 0x21C8 JUMP JUMPDEST SWAP3 SWAP2 POP POP JUMP JUMPDEST PUSH1 0x0 PUSH8 0xFFFFFFFFFFFFFFFF DUP3 GT ISZERO PUSH2 0x220D JUMPI PUSH2 0x220C PUSH2 0x1EE7 JUMP JUMPDEST JUMPDEST PUSH1 0x20 DUP3 MUL SWAP1 POP PUSH1 0x20 DUP2 ADD SWAP1 POP SWAP2 SWAP1 POP JUMP JUMPDEST PUSH1 0x0 DUP1 REVERT JUMPDEST PUSH1 0x0 PUSH2 0x2236 PUSH2 0x2231 DUP5 PUSH2 0x21F2 JUMP JUMPDEST PUSH2 0x1F47 JUMP JUMPDEST SWAP1 POP DUP1 DUP4 DUP3 MSTORE PUSH1 0x20 DUP3 ADD SWAP1 POP PUSH1 0x20 DUP5 MUL DUP4 ADD DUP6 DUP2 GT ISZERO PUSH2 0x2259 JUMPI PUSH2 0x2258 PUSH2 0x221E JUMP JUMPDEST JUMPDEST DUP4 JUMPDEST DUP2 DUP2 LT ISZERO PUSH2 0x22A0 JUMPI DUP1 CALLDATALOAD PUSH8 0xFFFFFFFFFFFFFFFF DUP2 GT ISZERO PUSH2 0x227E JUMPI PUSH2 0x227D PUSH2 0x1ECC JUMP JUMPDEST JUMPDEST DUP1 DUP7 ADD PUSH2 0x228B DUP10 DUP3 PUSH2 0x1FE4 JUMP JUMPDEST DUP6 MSTORE PUSH1 0x20 DUP6 ADD SWAP5 POP POP POP PUSH1 0x20 DUP2 ADD SWAP1 POP PUSH2 0x225B JUMP JUMPDEST POP POP POP SWAP4 SWAP3 POP POP POP JUMP JUMPDEST PUSH1 0x0 DUP3 PUSH1 0x1F DUP4 ADD SLT PUSH2 0x22BF JUMPI PUSH2 0x22BE PUSH2 0x1ECC JUMP JUMPDEST JUMPDEST DUP2 CALLDATALOAD PUSH2 0x22CF DUP5 DUP3 PUSH1 0x20 DUP7 ADD PUSH2 0x2223 JUMP JUMPDEST SWAP2 POP POP SWAP3 SWAP2 POP POP JUMP JUMPDEST PUSH2 0x22E1 DUP2 PUSH2 0x21BE JUMP JUMPDEST DUP2 EQ PUSH2 0x22EC JUMPI PUSH1 0x0 DUP1 REVERT JUMPDEST POP JUMP JUMPDEST PUSH1 0x0 DUP2 CALLDATALOAD SWAP1 POP PUSH2 0x22FE DUP2 PUSH2 0x22D8 JUMP JUMPDEST SWAP3 SWAP2 POP POP JUMP JUMPDEST PUSH1 0x0 DUP1 PUSH1 0x0 DUP1 PUSH1 0x80 DUP6 DUP8 SUB SLT ISZERO PUSH2 0x231E JUMPI PUSH2 0x231D PUSH2 0x1EC2 JUMP JUMPDEST JUMPDEST PUSH1 0x0 DUP6 ADD CALLDATALOAD PUSH8 0xFFFFFFFFFFFFFFFF DUP2 GT ISZERO PUSH2 0x233C JUMPI PUSH2 0x233B PUSH2 0x1EC7 JUMP JUMPDEST JUMPDEST PUSH2 0x2348 DUP8 DUP3 DUP9 ADD PUSH2 0x1FE4 JUMP JUMPDEST SWAP5 POP POP PUSH1 0x20 DUP6 ADD CALLDATALOAD PUSH8 0xFFFFFFFFFFFFFFFF DUP2 GT ISZERO PUSH2 0x2369 JUMPI PUSH2 0x2368 PUSH2 0x1EC7 JUMP JUMPDEST JUMPDEST PUSH2 0x2375 DUP8 DUP3 DUP9 ADD PUSH2 0x22AA JUMP JUMPDEST SWAP4 POP POP PUSH1 0x40 PUSH2 0x2386 DUP8 DUP3 DUP9 ADD PUSH2 0x22EF JUMP JUMPDEST SWAP3 POP POP PUSH1 0x60 PUSH2 0x2397 DUP8 DUP3 DUP9 ADD PUSH2 0x22EF JUMP JUMPDEST SWAP2 POP POP SWAP3 SWAP6 SWAP2 SWAP5 POP SWAP3 POP JUMP JUMPDEST PUSH1 0x0 DUP3 DUP3 MSTORE PUSH1 0x20 DUP3 ADD SWAP1 POP SWAP3 SWAP2 POP POP JUMP JUMPDEST PUSH1 0x0 PUSH2 0x23BF DUP3 PUSH2 0x2087 JUMP JUMPDEST PUSH2 0x23C9 DUP2 DUP6 PUSH2 0x23A3 JUMP JUMPDEST SWAP4 POP PUSH2 0x23D9 DUP2 DUP6 PUSH1 0x20 DUP7 ADD PUSH2 0x20A3 JUMP JUMPDEST PUSH2 0x23E2 DUP2 PUSH2 0x1ED6 JUMP JUMPDEST DUP5 ADD SWAP2 POP POP SWAP3 SWAP2 POP POP JUMP JUMPDEST PUSH1 0x0 PUSH1 0x20 DUP3 ADD SWAP1 POP DUP2 DUP2 SUB PUSH1 0x0 DUP4 ADD MSTORE PUSH2 0x2407 DUP2 DUP5 PUSH2 0x23B4 JUMP JUMPDEST SWAP1 POP SWAP3 SWAP2 POP POP JUMP JUMPDEST PUSH1 0x0 DUP2 MLOAD SWAP1 POP SWAP2 SWAP1 POP JUMP JUMPDEST PUSH1 0x0 DUP3 DUP3 MSTORE PUSH1 0x20 DUP3 ADD SWAP1 POP SWAP3 SWAP2 POP POP JUMP JUMPDEST PUSH1 0x0 DUP2 SWAP1 POP PUSH1 0x20 DUP3 ADD SWAP1 POP SWAP2 SWAP1 POP JUMP JUMPDEST PUSH1 0x0 DUP3 DUP3 MSTORE PUSH1 0x20 DUP3 ADD SWAP1 POP SWAP3 SWAP2 POP POP JUMP JUMPDEST PUSH1 0x0 PUSH2 0x2457 DUP3 PUSH2 0x205B JUMP JUMPDEST PUSH2 0x2461 DUP2 DUP6 PUSH2 0x243B JUMP JUMPDEST SWAP4 POP DUP4 PUSH1 0x20 DUP3 MUL DUP6 ADD PUSH2 0x2473 DUP6 PUSH2 0x2077 JUMP JUMPDEST DUP1 PUSH1 0x0 JUMPDEST DUP6 DUP2 LT ISZERO PUSH2 0x24AF JUMPI DUP5 DUP5 SUB DUP10 MSTORE DUP2 MLOAD PUSH2 0x2490 DUP6 DUP3 PUSH2 0x2106 JUMP JUMPDEST SWAP5 POP PUSH2 0x249B DUP4 PUSH2 0x211A JUMP JUMPDEST SWAP3 POP PUSH1 0x20 DUP11 ADD SWAP10 POP POP PUSH1 0x1 DUP2 ADD SWAP1 POP PUSH2 0x2477 JUMP JUMPDEST POP DUP3 SWAP8 POP DUP8 SWAP6 POP POP POP POP POP POP SWAP3 SWAP2 POP POP JUMP JUMPDEST PUSH2 0x24CA DUP2 PUSH2 0x21BE JUMP JUMPDEST DUP3 MSTORE POP POP JUMP JUMPDEST PUSH1 0x0 DUP2 ISZERO ISZERO SWAP1 POP SWAP2 SWAP1 POP JUMP JUMPDEST PUSH2 0x24E5 DUP2 PUSH2 0x24D0 JUMP JUMPDEST DUP3 MSTORE POP POP JUMP JUMPDEST PUSH1 0x0 PUSH20 0xFFFFFFFFFFFFFFFFFFFFFFFFFFFFFFFFFFFFFFFF DUP3 AND SWAP1 POP SWAP2 SWAP1 POP JUMP JUMPDEST PUSH1 0x0 PUSH2 0x2516 DUP3 PUSH2 0x24EB JUMP JUMPDEST SWAP1 POP SWAP2 SWAP1 POP JUMP JUMPDEST PUSH2 0x2526 DUP2 PUSH2 0x250B JUMP JUMPDEST DUP3 MSTORE POP POP JUMP JUMPDEST PUSH1 0x0 DUP2 MLOAD SWAP1 POP SWAP2 SWAP1 POP JUMP JUMPDEST PUSH1 0x0 DUP3 DUP3 MSTORE PUSH1 0x20 DUP3 ADD SWAP1 POP SWAP3 SWAP2 POP POP JUMP JUMPDEST PUSH1 0x0 DUP2 SWAP1 POP PUSH1 0x20 DUP3 ADD SWAP1 POP SWAP2 SWAP1 POP JUMP JUMPDEST PUSH1 0x40 DUP3 ADD PUSH1 0x0 DUP3 ADD MLOAD PUSH2 0x256E PUSH1 0x0 DUP6 ADD DUP3 PUSH2 0x251D JUMP JUMPDEST POP PUSH1 0x20 DUP3 ADD MLOAD PUSH2 0x2581 PUSH1 0x20 DUP6 ADD DUP3 PUSH2 0x24C1 JUMP JUMPDEST POP POP POP POP JUMP JUMPDEST PUSH1 0x0 PUSH2 0x2593 DUP4 DUP4 PUSH2 0x2558 JUMP JUMPDEST PUSH1 0x40 DUP4 ADD SWAP1 POP SWAP3 SWAP2 POP POP JUMP JUMPDEST PUSH1 0x0 PUSH1 0x20 DUP3 ADD SWAP1 POP SWAP2 SWAP1 POP JUMP JUMPDEST PUSH1 0x0 PUSH2 0x25B7 DUP3 PUSH2 0x252C JUMP JUMPDEST PUSH2 0x25C1 DUP2 DUP6 PUSH2 0x2537 JUMP JUMPDEST SWAP4 POP PUSH2 0x25CC DUP4 PUSH2 0x2548 JUMP JUMPDEST DUP1 PUSH1 0x0 JUMPDEST DUP4 DUP2 LT ISZERO PUSH2 0x25FD JUMPI DUP2 MLOAD PUSH2 0x25E4 DUP9 DUP3 PUSH2 0x2587 JUMP JUMPDEST SWAP8 POP PUSH2 0x25EF DUP4 PUSH2 0x259F JUMP JUMPDEST SWAP3 POP POP PUSH1 0x1 DUP2 ADD SWAP1 POP PUSH2 0x25D0 JUMP JUMPDEST POP DUP6 SWAP4 POP POP POP POP SWAP3 SWAP2 POP POP JUMP JUMPDEST PUSH1 0x0 PUSH2 0x160 DUP4 ADD PUSH1 0x0 DUP4 ADD MLOAD DUP5 DUP3 SUB PUSH1 0x0 DUP7 ADD MSTORE PUSH2 0x2628 DUP3 DUP3 PUSH2 0x20CD JUMP JUMPDEST SWAP2 POP POP PUSH1 0x20 DUP4 ADD MLOAD DUP5 DUP3 SUB PUSH1 0x20 DUP7 ADD MSTORE PUSH2 0x2642 DUP3 DUP3 PUSH2 0x244C JUMP JUMPDEST SWAP2 POP POP PUSH1 0x40 DUP4 ADD MLOAD PUSH2 0x2657 PUSH1 0x40 DUP7 ADD DUP3 PUSH2 0x24C1 JUMP JUMPDEST POP PUSH1 0x60 DUP4 ADD MLOAD PUSH2 0x266A PUSH1 0x60 DUP7 ADD DUP3 PUSH2 0x24C1 JUMP JUMPDEST POP PUSH1 0x80 DUP4 ADD MLOAD PUSH2 0x267D PUSH1 0x80 DUP7 ADD DUP3 PUSH2 0x24DC JUMP JUMPDEST POP PUSH1 0xA0 DUP4 ADD MLOAD PUSH2 0x2690 PUSH1 0xA0 DUP7 ADD DUP3 PUSH2 0x251D JUMP JUMPDEST POP PUSH1 0xC0 DUP4 ADD MLOAD PUSH2 0x26A3 PUSH1 0xC0 DUP7 ADD DUP3 PUSH2 0x24C1 JUMP JUMPDEST POP PUSH1 0xE0 DUP4 ADD MLOAD PUSH2 0x26B6 PUSH1 0xE0 DUP7 ADD DUP3 PUSH2 0x24C1 JUMP JUMPDEST POP PUSH2 0x100 DUP4 ADD MLOAD DUP5 DUP3 SUB PUSH2 0x100 DUP7 ADD MSTORE PUSH2 0x26D0 DUP3 DUP3 PUSH2 0x25AC JUMP JUMPDEST SWAP2 POP POP PUSH2 0x120 DUP4 ADD MLOAD PUSH2 0x26E7 PUSH2 0x120 DUP7 ADD DUP3 PUSH2 0x24DC JUMP JUMPDEST POP PUSH2 0x140 DUP4 ADD MLOAD DUP5 DUP3 SUB PUSH2 0x140 DUP7 ADD MSTORE PUSH2 0x2701 DUP3 DUP3 PUSH2 0x20CD JUMP JUMPDEST SWAP2 POP POP DUP1 SWAP2 POP POP SWAP3 SWAP2 POP POP JUMP JUMPDEST PUSH1 0x0 PUSH2 0x271A DUP4 DUP4 PUSH2 0x260A JUMP JUMPDEST SWAP1 POP SWAP3 SWAP2 POP POP JUMP JUMPDEST PUSH1 0x0 PUSH1 0x20 DUP3 ADD SWAP1 POP SWAP2 SWAP1 POP JUMP JUMPDEST PUSH1 0x0 PUSH2 0x273A DUP3 PUSH2 0x240F JUMP JUMPDEST PUSH2 0x2744 DUP2 DUP6 PUSH2 0x241A JUMP JUMPDEST SWAP4 POP DUP4 PUSH1 0x20 DUP3 MUL DUP6 ADD PUSH2 0x2756 DUP6 PUSH2 0x242B JUMP JUMPDEST DUP1 PUSH1 0x0 JUMPDEST DUP6 DUP2 LT ISZERO PUSH2 0x2792 JUMPI DUP5 DUP5 SUB DUP10 MSTORE DUP2 MLOAD PUSH2 0x2773 DUP6 DUP3 PUSH2 0x270E JUMP JUMPDEST SWAP5 POP PUSH2 0x277E DUP4 PUSH2 0x2722 JUMP JUMPDEST SWAP3 POP PUSH1 0x20 DUP11 ADD SWAP10 POP POP PUSH1 0x1 DUP2 ADD SWAP1 POP PUSH2 0x275A JUMP JUMPDEST POP DUP3 SWAP8 POP DUP8 SWAP6 POP POP POP POP POP POP SWAP3 SWAP2 POP POP JUMP JUMPDEST PUSH1 0x0 PUSH1 0x20 DUP3 ADD SWAP1 POP DUP2 DUP2 SUB PUSH1 0x0 DUP4 ADD MSTORE PUSH2 0x27BE DUP2 DUP5 PUSH2 0x272F JUMP JUMPDEST SWAP1 POP SWAP3 SWAP2 POP POP JUMP JUMPDEST PUSH2 0x27CF DUP2 PUSH2 0x24D0 JUMP JUMPDEST DUP3 MSTORE POP POP JUMP JUMPDEST PUSH1 0x0 PUSH1 0x20 DUP3 ADD SWAP1 POP PUSH2 0x27EA PUSH1 0x0 DUP4 ADD DUP5 PUSH2 0x27C6 JUMP JUMPDEST SWAP3 SWAP2 POP POP JUMP JUMPDEST PUSH32 0x4E487B7100000000000000000000000000000000000000000000000000000000 PUSH1 0x0 MSTORE PUSH1 0x22 PUSH1 0x4 MSTORE PUSH1 0x24 PUSH1 0x0 REVERT JUMPDEST PUSH1 0x0 PUSH1 0x2 DUP3 DIV SWAP1 POP PUSH1 0x1 DUP3 AND DUP1 PUSH2 0x2837 JUMPI PUSH1 0x7F DUP3 AND SWAP2 POP JUMPDEST PUSH1 0x20 DUP3 LT DUP2 SUB PUSH2 0x284A JUMPI PUSH2 0x2849 PUSH2 0x27F0 JUMP JUMPDEST JUMPDEST POP SWAP2 SWAP1 POP JUMP JUMPDEST PUSH32 0x416C726561647920696E2063617465676F726965730000000000000000000000 PUSH1 0x0 DUP3 ADD MSTORE POP JUMP JUMPDEST PUSH1 0x0 PUSH2 0x2886 PUSH1 0x15 DUP4 PUSH2 0x23A3 JUMP JUMPDEST SWAP2 POP PUSH2 0x2891 DUP3 PUSH2 0x2850 JUMP JUMPDEST PUSH1 0x20 DUP3 ADD SWAP1 POP SWAP2 SWAP1 POP JUMP JUMPDEST PUSH1 0x0 PUSH1 0x20 DUP3 ADD SWAP1 POP DUP2 DUP2 SUB PUSH1 0x0 DUP4 ADD MSTORE PUSH2 0x28B5 DUP2 PUSH2 0x2879 JUMP JUMPDEST SWAP1 POP SWAP2 SWAP1 POP JUMP JUMPDEST PUSH1 0x0 DUP2 SWAP1 POP DUP2 PUSH1 0x0 MSTORE PUSH1 0x20 PUSH1 0x0 KECCAK256 SWAP1 POP SWAP2 SWAP1 POP JUMP JUMPDEST PUSH1 0x0 PUSH1 0x20 PUSH1 0x1F DUP4 ADD DIV SWAP1 POP SWAP2 SWAP1 POP JUMP JUMPDEST PUSH1 0x0 DUP3 DUP3 SHL SWAP1 POP SWAP3 SWAP2 POP POP JUMP JUMPDEST PUSH1 0x0 PUSH1 0x8 DUP4 MUL PUSH2 0x291E PUSH32 0xFFFFFFFFFFFFFFFFFFFFFFFFFFFFFFFFFFFFFFFFFFFFFFFFFFFFFFFFFFFFFFFF DUP3 PUSH2 0x28E1 JUMP JUMPDEST PUSH2 0x2928 DUP7 DUP4 PUSH2 0x28E1 JUMP JUMPDEST SWAP6 POP DUP1 NOT DUP5 AND SWAP4 POP DUP1 DUP7 AND DUP5 OR SWAP3 POP POP POP SWAP4 SWAP3 POP POP POP JUMP JUMPDEST PUSH1 0x0 DUP2 SWAP1 POP SWAP2 SWAP1 POP JUMP JUMPDEST PUSH1 0x0 PUSH2 0x2965 PUSH2 0x2960 PUSH2 0x295B DUP5 PUSH2 0x21BE JUMP JUMPDEST PUSH2 0x2940 JUMP JUMPDEST PUSH2 0x21BE JUMP JUMPDEST SWAP1 POP SWAP2 SWAP1 POP JUMP JUMPDEST PUSH1 0x0 DUP2 SWAP1 POP SWAP2 SWAP1 POP JUMP JUMPDEST PUSH2 0x297F DUP4 PUSH2 0x294A JUMP JUMPDEST PUSH2 0x2993 PUSH2 0x298B DUP3 PUSH2 0x296C JUMP JUMPDEST DUP5 DUP5 SLOAD PUSH2 0x28EE JUMP JUMPDEST DUP3 SSTORE POP POP POP POP JUMP JUMPDEST PUSH1 0x0 SWAP1 JUMP JUMPDEST PUSH2 0x29A8 PUSH2 0x299B JUMP JUMPDEST PUSH2 0x29B3 DUP2 DUP5 DUP5 PUSH2 0x2976 JUMP JUMPDEST POP POP POP JUMP JUMPDEST JUMPDEST DUP2 DUP2 LT ISZERO PUSH2 0x29D7 JUMPI PUSH2 0x29CC PUSH1 0x0 DUP3 PUSH2 0x29A0 JUMP JUMPDEST PUSH1 0x1 DUP2 ADD SWAP1 POP PUSH2 0x29B9 JUMP JUMPDEST POP POP JUMP JUMPDEST PUSH1 0x1F DUP3 GT ISZERO PUSH2 0x2A1C JUMPI PUSH2 0x29ED DUP2 PUSH2 0x28BC JUMP JUMPDEST PUSH2 0x29F6 DUP5 PUSH2 0x28D1 JUMP JUMPDEST DUP2 ADD PUSH1 0x20 DUP6 LT ISZERO PUSH2 0x2A05 JUMPI DUP2 SWAP1 POP JUMPDEST PUSH2 0x2A19 PUSH2 0x2A11 DUP6 PUSH2 0x28D1 JUMP JUMPDEST DUP4 ADD DUP3 PUSH2 0x29B8 JUMP JUMPDEST POP POP JUMPDEST POP POP POP JUMP JUMPDEST PUSH1 0x0 DUP3 DUP3 SHR SWAP1 POP SWAP3 SWAP2 POP POP JUMP JUMPDEST PUSH1 0x0 PUSH2 0x2A3F PUSH1 0x0 NOT DUP5 PUSH1 0x8 MUL PUSH2 0x2A21 JUMP JUMPDEST NOT DUP1 DUP4 AND SWAP2 POP POP SWAP3 SWAP2 POP POP JUMP JUMPDEST PUSH1 0x0 PUSH2 0x2A58 DUP4 DUP4 PUSH2 0x2A2E JUMP JUMPDEST SWAP2 POP DUP3 PUSH1 0x2 MUL DUP3 OR SWAP1 POP SWAP3 SWAP2 POP POP JUMP JUMPDEST PUSH2 0x2A71 DUP3 PUSH2 0x2087 JUMP JUMPDEST PUSH8 0xFFFFFFFFFFFFFFFF DUP2 GT ISZERO PUSH2 0x2A8A JUMPI PUSH2 0x2A89 PUSH2 0x1EE7 JUMP JUMPDEST JUMPDEST PUSH2 0x2A94 DUP3 SLOAD PUSH2 0x281F JUMP JUMPDEST PUSH2 0x2A9F DUP3 DUP3 DUP6 PUSH2 0x29DB JUMP JUMPDEST PUSH1 0x0 PUSH1 0x20 SWAP1 POP PUSH1 0x1F DUP4 GT PUSH1 0x1 DUP2 EQ PUSH2 0x2AD2 JUMPI PUSH1 0x0 DUP5 ISZERO PUSH2 0x2AC0 JUMPI DUP3 DUP8 ADD MLOAD SWAP1 POP JUMPDEST PUSH2 0x2ACA DUP6 DUP3 PUSH2 0x2A4C JUMP JUMPDEST DUP7 SSTORE POP PUSH2 0x2B32 JUMP JUMPDEST PUSH1 0x1F NOT DUP5 AND PUSH2 0x2AE0 DUP7 PUSH2 0x28BC JUMP JUMPDEST PUSH1 0x0 JUMPDEST DUP3 DUP2 LT ISZERO PUSH2 0x2B08 JUMPI DUP5 DUP10 ADD MLOAD DUP3 SSTORE PUSH1 0x1 DUP3 ADD SWAP2 POP PUSH1 0x20 DUP6 ADD SWAP5 POP PUSH1 0x20 DUP2 ADD SWAP1 POP PUSH2 0x2AE3 JUMP JUMPDEST DUP7 DUP4 LT ISZERO PUSH2 0x2B25 JUMPI DUP5 DUP10 ADD MLOAD PUSH2 0x2B21 PUSH1 0x1F DUP10 AND DUP3 PUSH2 0x2A2E JUMP JUMPDEST DUP4 SSTORE POP JUMPDEST PUSH1 0x1 PUSH1 0x2 DUP9 MUL ADD DUP9 SSTORE POP POP POP JUMPDEST POP POP POP POP POP POP JUMP JUMPDEST PUSH32 0x70726F6A65637420646F65736E74206578697374000000000000000000000000 PUSH1 0x0 DUP3 ADD MSTORE POP JUMP JUMPDEST PUSH1 0x0 PUSH2 0x2B70 PUSH1 0x14 DUP4 PUSH2 0x23A3 JUMP JUMPDEST SWAP2 POP PUSH2 0x2B7B DUP3 PUSH2 0x2B3A JUMP JUMPDEST PUSH1 0x20 DUP3 ADD SWAP1 POP SWAP2 SWAP1 POP JUMP JUMPDEST PUSH1 0x0 PUSH1 0x20 DUP3 ADD SWAP1 POP DUP2 DUP2 SUB PUSH1 0x0 DUP4 ADD MSTORE PUSH2 0x2B9F DUP2 PUSH2 0x2B63 JUMP JUMPDEST SWAP1 POP SWAP2 SWAP1 POP JUMP JUMPDEST PUSH32 0x4E487B7100000000000000000000000000000000000000000000000000000000 PUSH1 0x0 MSTORE PUSH1 0x32 PUSH1 0x4 MSTORE PUSH1 0x24 PUSH1 0x0 REVERT JUMPDEST PUSH32 0x4E487B7100000000000000000000000000000000000000000000000000000000 PUSH1 0x0 MSTORE PUSH1 0x11 PUSH1 0x4 MSTORE PUSH1 0x24 PUSH1 0x0 REVERT JUMPDEST PUSH1 0x0 PUSH2 0x2C0F DUP3 PUSH2 0x21BE JUMP JUMPDEST SWAP2 POP PUSH2 0x2C1A DUP4 PUSH2 0x21BE JUMP JUMPDEST SWAP3 POP DUP3 DUP3 MUL PUSH2 0x2C28 DUP2 PUSH2 0x21BE JUMP JUMPDEST SWAP2 POP DUP3 DUP3 DIV DUP5 EQ DUP4 ISZERO OR PUSH2 0x2C3F JUMPI PUSH2 0x2C3E PUSH2 0x2BD5 JUMP JUMPDEST JUMPDEST POP SWAP3 SWAP2 POP POP JUMP JUMPDEST PUSH32 0x4E487B7100000000000000000000000000000000000000000000000000000000 PUSH1 0x0 MSTORE PUSH1 0x12 PUSH1 0x4 MSTORE PUSH1 0x24 PUSH1 0x0 REVERT JUMPDEST PUSH1 0x0 PUSH2 0x2C80 DUP3 PUSH2 0x21BE JUMP JUMPDEST SWAP2 POP PUSH2 0x2C8B DUP4 PUSH2 0x21BE JUMP JUMPDEST SWAP3 POP DUP3 PUSH2 0x2C9B JUMPI PUSH2 0x2C9A PUSH2 0x2C46 JUMP JUMPDEST JUMPDEST DUP3 DUP3 DIV SWAP1 POP SWAP3 SWAP2 POP POP JUMP JUMPDEST PUSH1 0x0 DUP2 SWAP1 POP SWAP2 SWAP1 POP JUMP JUMPDEST PUSH1 0x0 PUSH2 0x2CBB DUP3 PUSH2 0x2CA6 JUMP JUMPDEST SWAP2 POP PUSH32 0x7FFFFFFFFFFFFFFFFFFFFFFFFFFFFFFFFFFFFFFFFFFFFFFFFFFFFFFFFFFFFFFF DUP3 SUB PUSH2 0x2CED JUMPI PUSH2 0x2CEC PUSH2 0x2BD5 JUMP JUMPDEST JUMPDEST PUSH1 0x1 DUP3 ADD SWAP1 POP SWAP2 SWAP1 POP JUMP JUMPDEST PUSH1 0x0 PUSH1 0x40 DUP3 ADD SWAP1 POP DUP2 DUP2 SUB PUSH1 0x0 DUP4 ADD MSTORE PUSH2 0x2D12 DUP2 DUP6 PUSH2 0x23B4 JUMP JUMPDEST SWAP1 POP PUSH2 0x2D21 PUSH1 0x20 DUP4 ADD DUP5 PUSH2 0x21C8 JUMP JUMPDEST SWAP4 SWAP3 POP POP POP JUMP JUMPDEST PUSH32 0x6861736820646F65736E74206578697374000000000000000000000000000000 PUSH1 0x0 DUP3 ADD MSTORE POP JUMP JUMPDEST PUSH1 0x0 PUSH2 0x2D5E PUSH1 0x11 DUP4 PUSH2 0x23A3 JUMP JUMPDEST SWAP2 POP PUSH2 0x2D69 DUP3 PUSH2 0x2D28 JUMP JUMPDEST PUSH1 0x20 DUP3 ADD SWAP1 POP SWAP2 SWAP1 POP JUMP JUMPDEST PUSH1 0x0 PUSH1 0x20 DUP3 ADD SWAP1 POP DUP2 DUP2 SUB PUSH1 0x0 DUP4 ADD MSTORE PUSH2 0x2D8D DUP2 PUSH2 0x2D51 JUMP JUMPDEST SWAP1 POP SWAP2 SWAP1 POP JUMP JUMPDEST PUSH32 0x616C726561647920636C61696D65640000000000000000000000000000000000 PUSH1 0x0 DUP3 ADD MSTORE POP JUMP JUMPDEST PUSH1 0x0 PUSH2 0x2DCA PUSH1 0xF DUP4 PUSH2 0x23A3 JUMP JUMPDEST SWAP2 POP PUSH2 0x2DD5 DUP3 PUSH2 0x2D94 JUMP JUMPDEST PUSH1 0x20 DUP3 ADD SWAP1 POP SWAP2 SWAP1 POP JUMP JUMPDEST PUSH1 0x0 PUSH1 0x20 DUP3 ADD SWAP1 POP DUP2 DUP2 SUB PUSH1 0x0 DUP4 ADD MSTORE PUSH2 0x2DF9 DUP2 PUSH2 0x2DBD JUMP JUMPDEST SWAP1 POP SWAP2 SWAP1 POP JUMP JUMPDEST PUSH32 0x6E6F742066696E69736865640000000000000000000000000000000000000000 PUSH1 0x0 DUP3 ADD MSTORE POP JUMP JUMPDEST PUSH1 0x0 PUSH2 0x2E36 PUSH1 0xC DUP4 PUSH2 0x23A3 JUMP JUMPDEST SWAP2 POP PUSH2 0x2E41 DUP3 PUSH2 0x2E00 JUMP JUMPDEST PUSH1 0x20 DUP3 ADD SWAP1 POP SWAP2 SWAP1 POP JUMP JUMPDEST PUSH1 0x0 PUSH1 0x20 DUP3 ADD SWAP1 POP DUP2 DUP2 SUB PUSH1 0x0 DUP4 ADD MSTORE PUSH2 0x2E65 DUP2 PUSH2 0x2E29 JUMP JUMPDEST SWAP1 POP SWAP2 SWAP1 POP JUMP JUMPDEST PUSH1 0x0 PUSH2 0x2E77 DUP3 PUSH2 0x21BE JUMP JUMPDEST SWAP2 POP PUSH2 0x2E82 DUP4 PUSH2 0x21BE JUMP JUMPDEST SWAP3 POP DUP3 DUP3 ADD SWAP1 POP DUP1 DUP3 GT ISZERO PUSH2 0x2E9A JUMPI PUSH2 0x2E99 PUSH2 0x2BD5 JUMP JUMPDEST JUMPDEST SWAP3 SWAP2 POP POP JUMP JUMPDEST PUSH1 0x0 PUSH2 0x2EAB DUP3 PUSH2 0x21BE JUMP JUMPDEST SWAP2 POP PUSH2 0x2EB6 DUP4 PUSH2 0x21BE JUMP JUMPDEST SWAP3 POP DUP3 DUP3 SUB SWAP1 POP DUP2 DUP2 GT ISZERO PUSH2 0x2ECE JUMPI PUSH2 0x2ECD PUSH2 0x2BD5 JUMP JUMPDEST JUMPDEST SWAP3 SWAP2 POP POP JUMP JUMPDEST PUSH32 0x63617465676F7269657320617265206E6F742076616C69640000000000000000 PUSH1 0x0 DUP3 ADD MSTORE POP JUMP JUMPDEST PUSH1 0x0 PUSH2 0x2F0A PUSH1 0x18 DUP4 PUSH2 0x23A3 JUMP JUMPDEST SWAP2 POP PUSH2 0x2F15 DUP3 PUSH2 0x2ED4 JUMP JUMPDEST PUSH1 0x20 DUP3 ADD SWAP1 POP SWAP2 SWAP1 POP JUMP JUMPDEST PUSH1 0x0 PUSH1 0x20 DUP3 ADD SWAP1 POP DUP2 DUP2 SUB PUSH1 0x0 DUP4 ADD MSTORE PUSH2 0x2F39 DUP2 PUSH2 0x2EFD JUMP JUMPDEST SWAP1 POP SWAP2 SWAP1 POP JUMP JUMPDEST PUSH32 0x70657263656E7461676520646F65736E74206D616B652073656E736500000000 PUSH1 0x0 DUP3 ADD MSTORE POP JUMP JUMPDEST PUSH1 0x0 PUSH2 0x2F76 PUSH1 0x1C DUP4 PUSH2 0x23A3 JUMP JUMPDEST SWAP2 POP PUSH2 0x2F81 DUP3 PUSH2 0x2F40 JUMP JUMPDEST PUSH1 0x20 DUP3 ADD SWAP1 POP SWAP2 SWAP1 POP JUMP JUMPDEST PUSH1 0x0 PUSH1 0x20 DUP3 ADD SWAP1 POP DUP2 DUP2 SUB PUSH1 0x0 DUP4 ADD MSTORE PUSH2 0x2FA5 DUP2 PUSH2 0x2F69 JUMP JUMPDEST SWAP1 POP SWAP2 SWAP1 POP JUMP JUMPDEST PUSH1 0x0 PUSH2 0x2FB7 DUP3 PUSH2 0x21BE JUMP JUMPDEST SWAP2 POP PUSH32 0xFFFFFFFFFFFFFFFFFFFFFFFFFFFFFFFFFFFFFFFFFFFFFFFFFFFFFFFFFFFFFFFF DUP3 SUB PUSH2 0x2FE9 JUMPI PUSH2 0x2FE8 PUSH2 0x2BD5 JUMP JUMPDEST JUMPDEST PUSH1 0x1 DUP3 ADD SWAP1 POP SWAP2 SWAP1 POP JUMP JUMPDEST PUSH1 0x0 DUP2 SLOAD PUSH2 0x3001 DUP2 PUSH2 0x281F JUMP JUMPDEST PUSH2 0x300B DUP2 DUP7 PUSH2 0x23A3 JUMP JUMPDEST SWAP5 POP PUSH1 0x1 DUP3 AND PUSH1 0x0 DUP2 EQ PUSH2 0x3026 JUMPI PUSH1 0x1 DUP2 EQ PUSH2 0x303C JUMPI PUSH2 0x306F JUMP JUMPDEST PUSH1 0xFF NOT DUP4 AND DUP7 MSTORE DUP2 ISZERO ISZERO PUSH1 0x20 MUL DUP7 ADD SWAP4 POP PUSH2 0x306F JUMP JUMPDEST PUSH2 0x3045 DUP6 PUSH2 0x28BC JUMP JUMPDEST PUSH1 0x0 JUMPDEST DUP4 DUP2 LT ISZERO PUSH2 0x3067 JUMPI DUP2 SLOAD DUP2 DUP10 ADD MSTORE PUSH1 0x1 DUP3 ADD SWAP2 POP PUSH1 0x20 DUP2 ADD SWAP1 POP PUSH2 0x3048 JUMP JUMPDEST DUP1 DUP9 ADD SWAP6 POP POP POP JUMPDEST POP POP POP SWAP3 SWAP2 POP POP JUMP JUMPDEST PUSH2 0x3081 DUP2 PUSH2 0x250B JUMP JUMPDEST DUP3 MSTORE POP POP JUMP JUMPDEST PUSH1 0x0 PUSH1 0x60 DUP3 ADD SWAP1 POP DUP2 DUP2 SUB PUSH1 0x0 DUP4 ADD MSTORE PUSH2 0x30A1 DUP2 DUP7 PUSH2 0x2FF4 JUMP JUMPDEST SWAP1 POP PUSH2 0x30B0 PUSH1 0x20 DUP4 ADD DUP6 PUSH2 0x21C8 JUMP JUMPDEST PUSH2 0x30BD PUSH1 0x40 DUP4 ADD DUP5 PUSH2 0x3078 JUMP JUMPDEST SWAP5 SWAP4 POP POP POP POP JUMP JUMPDEST PUSH32 0x70726F6A6563742066696E697368656400000000000000000000000000000000 PUSH1 0x0 DUP3 ADD MSTORE POP JUMP JUMPDEST PUSH1 0x0 PUSH2 0x30FB PUSH1 0x10 DUP4 PUSH2 0x23A3 JUMP JUMPDEST SWAP2 POP PUSH2 0x3106 DUP3 PUSH2 0x30C5 JUMP JUMPDEST PUSH1 0x20 DUP3 ADD SWAP1 POP SWAP2 SWAP1 POP JUMP JUMPDEST PUSH1 0x0 PUSH1 0x20 DUP3 ADD SWAP1 POP DUP2 DUP2 SUB PUSH1 0x0 DUP4 ADD MSTORE PUSH2 0x312A DUP2 PUSH2 0x30EE JUMP JUMPDEST SWAP1 POP SWAP2 SWAP1 POP JUMP JUMPDEST PUSH1 0x0 PUSH1 0x60 DUP3 ADD SWAP1 POP DUP2 DUP2 SUB PUSH1 0x0 DUP4 ADD MSTORE PUSH2 0x314B DUP2 DUP7 PUSH2 0x23B4 JUMP JUMPDEST SWAP1 POP PUSH2 0x315A PUSH1 0x20 DUP4 ADD DUP6 PUSH2 0x21C8 JUMP JUMPDEST PUSH2 0x3167 PUSH1 0x40 DUP4 ADD DUP5 PUSH2 0x3078 JUMP JUMPDEST SWAP5 SWAP4 POP POP POP POP JUMP JUMPDEST PUSH32 0x6E6F74206F776E65720000000000000000000000000000000000000000000000 PUSH1 0x0 DUP3 ADD MSTORE POP JUMP JUMPDEST PUSH1 0x0 PUSH2 0x31A5 PUSH1 0x9 DUP4 PUSH2 0x23A3 JUMP JUMPDEST SWAP2 POP PUSH2 0x31B0 DUP3 PUSH2 0x316F JUMP JUMPDEST PUSH1 0x20 DUP3 ADD SWAP1 POP SWAP2 SWAP1 POP JUMP JUMPDEST PUSH1 0x0 PUSH1 0x20 DUP3 ADD SWAP1 POP DUP2 DUP2 SUB PUSH1 0x0 DUP4 ADD MSTORE PUSH2 0x31D4 DUP2 PUSH2 0x3198 JUMP JUMPDEST SWAP1 POP SWAP2 SWAP1 POP JUMP JUMPDEST PUSH32 0x66696E69736865642066756E6400000000000000000000000000000000000000 PUSH1 0x0 DUP3 ADD MSTORE POP JUMP JUMPDEST PUSH1 0x0 PUSH2 0x3211 PUSH1 0xD DUP4 PUSH2 0x23A3 JUMP JUMPDEST SWAP2 POP PUSH2 0x321C DUP3 PUSH2 0x31DB JUMP JUMPDEST PUSH1 0x20 DUP3 ADD SWAP1 POP SWAP2 SWAP1 POP JUMP JUMPDEST PUSH1 0x0 PUSH1 0x20 DUP3 ADD SWAP1 POP DUP2 DUP2 SUB PUSH1 0x0 DUP4 ADD MSTORE PUSH2 0x3240 DUP2 PUSH2 0x3204 JUMP JUMPDEST SWAP1 POP SWAP2 SWAP1 POP JUMP INVALID LOG2 PUSH5 0x6970667358 0x22 SLT KECCAK256 SWAP11 0xDC 0x4F GASPRICE 0xF8 PUSH12 0xE94A8DB88E7BE9F88064A877 0xB9 TLOAD 0xB3 SIGNEXTEND PUSH15 0x5F628EF90958F4CB7064736F6C6343 STOP ADDMOD XOR STOP CALLER "
        },
        "methodIdentifiers": {
          "addCategory(string)": "2e0dcbf7",
          "claimMoney(string)": "38c79aa7",
          "distrubiteMoney(string)": "354446a3",
          "donateToProject(string)": "f6b58310",
          "getCategories()": "4db0412c",
          "getHash()": "d13319c4",
          "getMaxMoneyPossibleToSend(string)": "7d2b9058",
          "getProjects()": "dcc60128",
          "refund(string)": "fe5f2e88",
          "registerProject(string,string[],uint256,uint256)": "a19c8565"
        }
      }
    }
  }
}